Product: MDK-ARM Standard 5.10
Component: ARM Compiler 5.04 update 1 (build 49)
Tool: armlink [5040049]

==============================================================================

Section Cross References

    main.o(.text) refers to looplist.o(.text) for rbCanRead
    main.o(.text) refers to iap.o(.text) for IAP_RecvFile
    main.o(.text) refers to delay.o(.text) for delay_ms
    main.o(.text) refers to __2printf.o(.text) for __2printf
    main.o(.text) refers to cpu_core.o(.text) for CPU_Init
    main.o(.text) refers to os_stat.o(.text) for OSStatTaskCPUUsageInit
    main.o(.text) refers to cpu_a.o(.text) for CPU_SR_Save
    main.o(.text) refers to os_task.o(.text) for OSTaskCreate
    main.o(.text) refers to os_core.o(.text) for OS_Sched0
    main.o(.text) refers to sys.o(.text) for NVIC_Configuration
    main.o(.text) refers to malloc.o(.text) for my_mem_init
    main.o(.text) refers to usart.o(.text) for uart_init
    main.o(.text) refers to usart4.o(.text) for usart4_init
    main.o(.text) refers to led.o(.text) for led_init
    main.o(.text) refers to key.o(.text) for key_init
    main.o(.text) refers to beep.o(.text) for beep_init
    main.o(.text) refers to flash.o(.text) for SPI_Flash_Init
    main.o(.text) refers to usart4.o(.bss) for pRb
==============================================================================

Removing Unused input sections from the image.

    Removing core_cm3.o(.emb_text), (32 bytes).
    Removing stm32f10x_fsmc.o(.text), (1548 bytes).
    Removing stm32f10x_bkp.o(.text), (196 bytes).
    Removing stm32f10x_rtc.o(.text), (328 bytes).
    Removing stm32f10x_pwr.o(.text), (204 bytes).
    Removing cpu_c.o(.text), (1916 bytes).
    Removing lib_math.o(.text), (128 bytes).
    Removing lib_math.o(.data), (4 bytes).
    Removing os_app_hooks.o(.text), (200 bytes).

9 unused section(s) (total 4556 bytes) removed from the image.

==============================================================================

Image Symbol Table

    Local Symbols

    Symbol Name                              Value     Ov Type        Size  Object(Section)

    ../clib/angel/boardlib.s                 0x00000000   Number         0  boardinit3.o ABSOLUTE
    ../clib/angel/boardlib.s                 0x00000000   Number         0  boardshut.o ABSOLUTE
    ../clib/angel/boardlib.s                 0x00000000   Number         0  boardinit1.o ABSOLUTE
    ../clib/angel/boardlib.s                 0x00000000   Number         0  boardinit2.o ABSOLUTE
    ../clib/angel/dczerorl2.s                0x00000000   Number         0  __dczerorl2.o ABSOLUTE
    ../clib/angel/handlers.s                 0x00000000   Number         0  __scatter_zi.o ABSOLUTE
    ../clib/angel/kernel.s                   0x00000000   Number         0  rtentry.o ABSOLUTE
    ../clib/angel/kernel.s                   0x00000000   Number         0  rtexit2.o ABSOLUTE
    ../clib/angel/kernel.s                   0x00000000   Number         0  rtentry2.o ABSOLUTE
    ../clib/angel/kernel.s                   0x00000000   Number         0  rtentry4.o ABSOLUTE
    ../clib/angel/kernel.s                   0x00000000   Number         0  rtexit.o ABSOLUTE
    ../clib/angel/rt.s                       0x00000000   Number         0  aeabi_ldiv0_sigfpe.o ABSOLUTE
    ../clib/angel/rt.s                       0x00000000   Number         0  rt_div0.o ABSOLUTE
    ../clib/angel/rt.s                       0x00000000   Number         0  rt_raise.o ABSOLUTE
    ../clib/angel/rt.s                       0x00000000   Number         0  rt_locale_intlibspace.o ABSOLUTE
    ../clib/angel/rt.s                       0x00000000   Number         0  rt_ctype_table.o ABSOLUTE
    ../clib/angel/rt.s                       0x00000000   Number         0  rt_locale.o ABSOLUTE
    ../clib/angel/rt.s                       0x00000000   Number         0  aeabi_ldiv0.o ABSOLUTE
    ../clib/angel/scatter.s                  0x00000000   Number         0  __scatter.o ABSOLUTE
    ../clib/angel/startup.s                  0x00000000   Number         0  __main.o ABSOLUTE
    ../clib/angel/sys.s                      0x00000000   Number         0  use_no_semi_2.o ABSOLUTE
    ../clib/angel/sys.s                      0x00000000   Number         0  use_no_semi.o ABSOLUTE
    ../clib/angel/sys.s                      0x00000000   Number         0  libspace.o ABSOLUTE
    ../clib/angel/sys.s                      0x00000000   Number         0  indicate_semi.o ABSOLUTE
    ../clib/angel/sys.s                      0x00000000   Number         0  sys_stackheap_outer.o ABSOLUTE
    ../clib/angel/sysapp.c                   0x00000000   Number         0  sys_wrch.o ABSOLUTE
    ../clib/angel/sysapp.c                   0x00000000   Number         0  sys_command.o ABSOLUTE
    ../clib/armsys.c                         0x00000000   Number         0  argv_veneer.o ABSOLUTE
    ../clib/armsys.c                         0x00000000   Number         0  argv_veneer.o ABSOLUTE
    ../clib/armsys.c                         0x00000000   Number         0  _get_argv_nomalloc.o ABSOLUTE
    ../clib/armsys.c                         0x00000000   Number         0  no_argv.o ABSOLUTE
    ../clib/bigflt.c                         0x00000000   Number         0  bigflt0.o ABSOLUTE
    ../clib/btod.s                           0x00000000   Number         0  btod.o ABSOLUTE
    ../clib/heapalloc.c                      0x00000000   Number         0  hrguard.o ABSOLUTE
    ../clib/heapaux.c                        0x00000000   Number         0  heapauxi.o ABSOLUTE
    ../clib/libinit.s                        0x00000000   Number         0  libinit.o ABSOLUTE
    ../clib/libinit.s                        0x00000000   Number         0  libshutdown.o ABSOLUTE
    ../clib/libinit.s                        0x00000000   Number         0  libshutdown2.o ABSOLUTE
    ../clib/libinit.s                        0x00000000   Number         0  libinit2.o ABSOLUTE
    ../clib/locale.c                         0x00000000   Number         0  _wcrtomb.o ABSOLUTE
    ../clib/locale.s                         0x00000000   Number         0  lc_numeric_c.o ABSOLUTE
    ../clib/locale.s                         0x00000000   Number         0  lc_ctype_c.o ABSOLUTE
    ../clib/longlong.s                       0x00000000   Number         0  lludivv7m.o ABSOLUTE
    ../clib/longlong.s                       0x00000000   Number         0  lludiv10.o ABSOLUTE
    ../clib/memcpset.s                       0x00000000   Number         0  rt_memclr_w.o ABSOLUTE
    ../clib/memcpset.s                       0x00000000   Number         0  rt_memcpy_v6.o ABSOLUTE
    ../clib/memcpset.s                       0x00000000   Number         0  strcmpv7m.o ABSOLUTE
    ../clib/memcpset.s                       0x00000000   Number         0  rt_memcpy_w.o ABSOLUTE
    ../clib/misc.s                           0x00000000   Number         0  printf_stubs.o ABSOLUTE
    ../clib/printf.c                         0x00000000   Number         0  __printf_ss_wp.o ABSOLUTE
    ../clib/printf.c                         0x00000000   Number         0  _printf_oct_ll.o ABSOLUTE
    ../clib/printf.c                         0x00000000   Number         0  _printf_wctomb.o ABSOLUTE
    ../clib/printf.c                         0x00000000   Number         0  _printf_char_file.o ABSOLUTE
    ../clib/printf.c                         0x00000000   Number         0  _sputc.o ABSOLUTE
    ../clib/printf.c                         0x00000000   Number         0  _printf_char_common.o ABSOLUTE
    ../clib/printf.c                         0x00000000   Number         0  __printf_flags_ss_wp.o ABSOLUTE
    ../clib/printf.c                         0x00000000   Number         0  _printf_charcount.o ABSOLUTE
    ../clib/printf.c                         0x00000000   Number         0  _printf_dec.o ABSOLUTE
    ../clib/printf.c                         0x00000000   Number         0  _printf_intcommon.o ABSOLUTE
    ../clib/printf.c                         0x00000000   Number         0  _printf_str.o ABSOLUTE
    ../clib/printf.c                         0x00000000   Number         0  _printf_truncate.o ABSOLUTE
    ../clib/printf.c                         0x00000000   Number         0  _printf_longlong_dec.o ABSOLUTE
    ../clib/printf.c                         0x00000000   Number         0  c89vsprintf.o ABSOLUTE
    ../clib/printf.c                         0x00000000   Number         0  __2printf.o ABSOLUTE
    ../clib/printf.c                         0x00000000   Number         0  noretval__2printf.o ABSOLUTE
    ../clib/printf.c                         0x00000000   Number         0  __printf.o ABSOLUTE
    ../clib/printf.c                         0x00000000   Number         0  _printf_pad.o ABSOLUTE
    ../clib/printf.c                         0x00000000   Number         0  _printf_fp_infnan.o ABSOLUTE
    ../clib/printf.c                         0x00000000   Number         0  _printf_hex_ll.o ABSOLUTE
    ../clib/printf.c                         0x00000000   Number         0  _printf_hex_int.o ABSOLUTE
    ../clib/printf.c                         0x00000000   Number         0  _printf_hex_int_ll.o ABSOLUTE
    ../clib/printf.c                         0x00000000   Number         0  _printf_hex_ptr.o ABSOLUTE
    ../clib/printf.c                         0x00000000   Number         0  _printf_hex_int_ptr.o ABSOLUTE
    ../clib/printf.c                         0x00000000   Number         0  _printf_hex_ll_ptr.o ABSOLUTE
    ../clib/printf.c                         0x00000000   Number         0  _printf_hex_int_ll_ptr.o ABSOLUTE
    ../clib/printf.c                         0x00000000   Number         0  _printf_oct_int_ll.o ABSOLUTE
    ../clib/printf.c                         0x00000000   Number         0  __printf_flags.o ABSOLUTE
    ../clib/printf.c                         0x00000000   Number         0  _printf_wchar.o ABSOLUTE
    ../clib/printf.c                         0x00000000   Number         0  _printf_char.o ABSOLUTE
    ../clib/printf.c                         0x00000000   Number         0  __printf_nopercent.o ABSOLUTE
    ../clib/printf.c                         0x00000000   Number         0  _printf_fp_dec.o ABSOLUTE
    ../clib/printf.c                         0x00000000   Number         0  __printf_ss.o ABSOLUTE
    ../clib/printf.c                         0x00000000   Number         0  __printf_flags_ss.o ABSOLUTE
    ../clib/printf.c                         0x00000000   Number         0  __printf_wp.o ABSOLUTE
    ../clib/printf.c                         0x00000000   Number         0  _printf_oct_int.o ABSOLUTE
    ../clib/printf.c                         0x00000000   Number         0  __printf_flags_wp.o ABSOLUTE
    ../clib/printf_percent.s                 0x00000000   Number         0  _printf_p.o ABSOLUTE
    ../clib/printf_percent.s                 0x00000000   Number         0  _printf_c.o ABSOLUTE
    ../clib/printf_percent.s                 0x00000000   Number         0  _printf_o.o ABSOLUTE
    ../clib/printf_percent.s                 0x00000000   Number         0  _printf_i.o ABSOLUTE
    ../clib/printf_percent.s                 0x00000000   Number         0  _printf_percent.o ABSOLUTE
    ../clib/printf_percent.s                 0x00000000   Number         0  _printf_d.o ABSOLUTE
    ../clib/printf_percent.s                 0x00000000   Number         0  _printf_u.o ABSOLUTE
    ../clib/printf_percent.s                 0x00000000   Number         0  _printf_f.o ABSOLUTE
    ../clib/printf_percent.s                 0x00000000   Number         0  _printf_s.o ABSOLUTE
    ../clib/printf_percent.s                 0x00000000   Number         0  _printf_x.o ABSOLUTE
    ../clib/printf_percent.s                 0x00000000   Number         0  _printf_llx.o ABSOLUTE
    ../clib/printf_percent.s                 0x00000000   Number         0  _printf_llo.o ABSOLUTE
    ../clib/printf_percent.s                 0x00000000   Number         0  _printf_ls.o ABSOLUTE
    ../clib/printf_percent.s                 0x00000000   Number         0  _printf_lc.o ABSOLUTE
    ../clib/printf_percent.s                 0x00000000   Number         0  _printf_l.o ABSOLUTE
    ../clib/printf_percent.s                 0x00000000   Number         0  _printf_ll.o ABSOLUTE
    ../clib/printf_percent.s                 0x00000000   Number         0  _printf_llu.o ABSOLUTE
    ../clib/printf_percent.s                 0x00000000   Number         0  _printf_lld.o ABSOLUTE
    ../clib/printf_percent.s                 0x00000000   Number         0  _printf_lli.o ABSOLUTE
    ../clib/printf_percent.s                 0x00000000   Number         0  _printf_percent_end.o ABSOLUTE
    ../clib/printf_percent.s                 0x00000000   Number         0  _printf_a.o ABSOLUTE
    ../clib/printf_percent.s                 0x00000000   Number         0  _printf_n.o ABSOLUTE
    ../clib/printf_percent.s                 0x00000000   Number         0  _printf_g.o ABSOLUTE
    ../clib/printf_percent.s                 0x00000000   Number         0  _printf_e.o ABSOLUTE
    ../clib/signal.c                         0x00000000   Number         0  defsig_general.o ABSOLUTE
    ../clib/signal.c                         0x00000000   Number         0  __raise.o ABSOLUTE
    ../clib/signal.c                         0x00000000   Number         0  defsig_fpe_inner.o ABSOLUTE
    ../clib/signal.c                         0x00000000   Number         0  defsig_exit.o ABSOLUTE
    ../clib/signal.c                         0x00000000   Number         0  defsig_fpe_formal.o ABSOLUTE
    ../clib/signal.c                         0x00000000   Number         0  defsig_fpe_outer.o ABSOLUTE
    ../clib/signal.c                         0x00000000   Number         0  defsig_other.o ABSOLUTE
    ../clib/signal.c                         0x00000000   Number         0  defsig_segv_inner.o ABSOLUTE
    ../clib/signal.c                         0x00000000   Number         0  defsig_cppl_inner.o ABSOLUTE
    ../clib/signal.c                         0x00000000   Number         0  defsig_pvfn_inner.o ABSOLUTE
    ../clib/signal.c                         0x00000000   Number         0  defsig_stak_inner.o ABSOLUTE
    ../clib/signal.c                         0x00000000   Number         0  defsig_rtmem_formal.o ABSOLUTE
    ../clib/signal.c                         0x00000000   Number         0  defsig_rtmem_outer.o ABSOLUTE
    ../clib/signal.c                         0x00000000   Number         0  defsig_rtmem_inner.o ABSOLUTE
    ../clib/signal.c                         0x00000000   Number         0  defsig_rtred_inner.o ABSOLUTE
    ../clib/signal.c                         0x00000000   Number         0  defsig_abrt_inner.o ABSOLUTE
    ../clib/signal.s                         0x00000000   Number         0  defsig.o ABSOLUTE
    ../clib/stdio.c                          0x00000000   Number         0  ferror_locked.o ABSOLUTE
    ../clib/stdio.c                          0x00000000   Number         0  ferror.o ABSOLUTE
    ../clib/stdlib.c                         0x00000000   Number         0  exit.o ABSOLUTE
    ../clib/string.c                         0x00000000   Number         0  strlen.o ABSOLUTE
    ../fplib/fpinit.s                        0x00000000   Number         0  fpinit.o ABSOLUTE
    ../fplib/istatus.s                       0x00000000   Number         0  istatus.o ABSOLUTE
    ../fplib/printf1.s                       0x00000000   Number         0  printf1.o ABSOLUTE
    ../fplib/usenofp.s                       0x00000000   Number         0  usenofp.o ABSOLUTE
    ../mathlib/fpclassify.c                  0x00000000   Number         0  fpclassify.o ABSOLUTE
    ..\CORE\core_cm3.c                       0x00000000   Number         0  core_cm3.o ABSOLUTE
    ..\CORE\startup_stm32f10x_hd.s           0x00000000   Number         0  startup_stm32f10x_hd.o ABSOLUTE
    ..\FWLIB\STM32F10x_FWLib\src\misc.c      0x00000000   Number         0  misc.o ABSOLUTE
    ..\FWLIB\STM32F10x_FWLib\src\stm32f10x_bkp.c 0x00000000   Number         0  stm32f10x_bkp.o ABSOLUTE
    ..\FWLIB\STM32F10x_FWLib\src\stm32f10x_flash.c 0x00000000   Number         0  stm32f10x_flash.o ABSOLUTE
    ..\FWLIB\STM32F10x_FWLib\src\stm32f10x_fsmc.c 0x00000000   Number         0  stm32f10x_fsmc.o ABSOLUTE
    ..\FWLIB\STM32F10x_FWLib\src\stm32f10x_gpio.c 0x00000000   Number         0  stm32f10x_gpio.o ABSOLUTE
    ..\FWLIB\STM32F10x_FWLib\src\stm32f10x_pwr.c 0x00000000   Number         0  stm32f10x_pwr.o ABSOLUTE
    ..\FWLIB\STM32F10x_FWLib\src\stm32f10x_rcc.c 0x00000000   Number         0  stm32f10x_rcc.o ABSOLUTE
    ..\FWLIB\STM32F10x_FWLib\src\stm32f10x_rtc.c 0x00000000   Number         0  stm32f10x_rtc.o ABSOLUTE
    ..\FWLIB\STM32F10x_FWLib\src\stm32f10x_spi.c 0x00000000   Number         0  stm32f10x_spi.o ABSOLUTE
    ..\FWLIB\STM32F10x_FWLib\src\stm32f10x_tim.c 0x00000000   Number         0  stm32f10x_tim.o ABSOLUTE
    ..\FWLIB\STM32F10x_FWLib\src\stm32f10x_usart.c 0x00000000   Number         0  stm32f10x_usart.o ABSOLUTE
    ..\HARDWARE\BEEP\beep.c                  0x00000000   Number         0  beep.o ABSOLUTE
    ..\HARDWARE\FLASH\flash.c                0x00000000   Number         0  flash.o ABSOLUTE
    ..\HARDWARE\KEY\key.c                    0x00000000   Number         0  key.o ABSOLUTE
    ..\HARDWARE\LED\led.c                    0x00000000   Number         0  led.o ABSOLUTE
    ..\HARDWARE\SPI\spi.c                    0x00000000   Number         0  spi.o ABSOLUTE
    ..\HARDWARE\TIM\timer.c                  0x00000000   Number         0  timer.o ABSOLUTE
    ..\HARDWARE\USART4\usart4.c              0x00000000   Number         0  usart4.o ABSOLUTE
    ..\IAP\iap.c                             0x00000000   Number         0  iap.o ABSOLUTE
    ..\MALLOC\LoopList.c                     0x00000000   Number         0  looplist.o ABSOLUTE
    ..\MALLOC\malloc.c                       0x00000000   Number         0  malloc.o ABSOLUTE
    ..\SHA1\sha1.c                           0x00000000   Number         0  sha1.o ABSOLUTE
    ..\STMFLASH\stmflash.c                   0x00000000   Number         0  stmflash.o ABSOLUTE
    ..\SYSTEM\delay\delay.c                  0x00000000   Number         0  delay.o ABSOLUTE
    ..\SYSTEM\sys\sys.c                      0x00000000   Number         0  sys.o ABSOLUTE
    ..\SYSTEM\usart\usart.c                  0x00000000   Number         0  usart.o ABSOLUTE
    ..\UCOSIII\UCOS_BSP\bsp.c                0x00000000   Number         0  bsp.o ABSOLUTE
    ..\UCOSIII\uC-CPU\ARM-Cortex-M3\RealView\cpu_a.asm 0x00000000   Number         0  cpu_a.o ABSOLUTE
    ..\UCOSIII\uC-CPU\ARM-Cortex-M3\RealView\cpu_c.c 0x00000000   Number         0  cpu_c.o ABSOLUTE
    ..\UCOSIII\uC-CPU\cpu_core.c             0x00000000   Number         0  cpu_core.o ABSOLUTE
    ..\UCOSIII\uC-LIB\Ports\ARM-Cortex-M3\RealView\lib_mem_a.asm 0x00000000   Number         0  lib_mem_a.o ABSOLUTE
    ..\UCOSIII\uC-LIB\lib_ascii.c            0x00000000   Number         0  lib_ascii.o ABSOLUTE
    ..\UCOSIII\uC-LIB\lib_math.c             0x00000000   Number         0  lib_math.o ABSOLUTE
    ..\UCOSIII\uC-LIB\lib_mem.c              0x00000000   Number         0  lib_mem.o ABSOLUTE
    ..\UCOSIII\uC-LIB\lib_str.c              0x00000000   Number         0  lib_str.o ABSOLUTE
    ..\UCOSIII\uCOS-III\Ports\ARM-Cortex-M3\Generic\RealView\os_cpu_a.s 0x00000000   Number         0  os_cpu_a.o ABSOLUTE
    ..\UCOSIII\uCOS-III\Ports\ARM-Cortex-M3\Generic\RealView\os_cpu_c.c 0x00000000   Number         0  os_cpu_c.o ABSOLUTE
    ..\UCOSIII\uCOS-III\Source\os_cfg_app.c  0x00000000   Number         0  os_cfg_app.o ABSOLUTE
    ..\UCOSIII\uCOS-III\Source\os_core.c     0x00000000   Number         0  os_core.o ABSOLUTE
    ..\UCOSIII\uCOS-III\Source\os_dbg.c      0x00000000   Number         0  os_dbg.o ABSOLUTE
    ..\UCOSIII\uCOS-III\Source\os_flag.c     0x00000000   Number         0  os_flag.o ABSOLUTE
    ..\UCOSIII\uCOS-III\Source\os_int.c      0x00000000   Number         0  os_int.o ABSOLUTE
    ..\UCOSIII\uCOS-III\Source\os_mem.c      0x00000000   Number         0  os_mem.o ABSOLUTE
    ..\UCOSIII\uCOS-III\Source\os_msg.c      0x00000000   Number         0  os_msg.o ABSOLUTE
    ..\UCOSIII\uCOS-III\Source\os_mutex.c    0x00000000   Number         0  os_mutex.o ABSOLUTE
    ..\UCOSIII\uCOS-III\Source\os_pend_multi.c 0x00000000   Number         0  os_pend_multi.o ABSOLUTE
    ..\UCOSIII\uCOS-III\Source\os_prio.c     0x00000000   Number         0  os_prio.o ABSOLUTE
    ..\UCOSIII\uCOS-III\Source\os_q.c        0x00000000   Number         0  os_q.o ABSOLUTE
    ..\UCOSIII\uCOS-III\Source\os_sem.c      0x00000000   Number         0  os_sem.o ABSOLUTE
    ..\UCOSIII\uCOS-III\Source\os_stat.c     0x00000000   Number         0  os_stat.o ABSOLUTE
    ..\UCOSIII\uCOS-III\Source\os_task.c     0x00000000   Number         0  os_task.o ABSOLUTE
    ..\UCOSIII\uCOS-III\Source\os_tick.c     0x00000000   Number         0  os_tick.o ABSOLUTE
    ..\UCOSIII\uCOS-III\Source\os_time.c     0x00000000   Number         0  os_time.o ABSOLUTE
    ..\UCOSIII\uCOS-III\Source\os_tmr.c      0x00000000   Number         0  os_tmr.o ABSOLUTE
    ..\UCOSIII\uCOS-III\Source\os_var.c      0x00000000   Number         0  os_var.o ABSOLUTE
    ..\UCOSIII\uCOS_CONFIG\os_app_hooks.c    0x00000000   Number         0  os_app_hooks.o ABSOLUTE
    ..\\CORE\\core_cm3.c                     0x00000000   Number         0  core_cm3.o ABSOLUTE
    ..\\SYSTEM\\sys\\sys.c                   0x00000000   Number         0  sys.o ABSOLUTE
    dc.s                                     0x00000000   Number         0  dc.o ABSOLUTE
    main.c                                   0x00000000   Number         0  main.o ABSOLUTE
    system_stm32f10x.c                       0x00000000   Number         0  system_stm32f10x.o ABSOLUTE
    RESET                                    0x08010000   Section      304  startup_stm32f10x_hd.o(RESET)
    !!!main                                  0x08010130   Section        8  __main.o(!!!main)
    !!!scatter                               0x08010138   Section       52  __scatter.o(!!!scatter)
    !!dczerorl2                              0x0801016c   Section       90  __dczerorl2.o(!!dczerorl2)
    !!handler_zi                             0x080101c8   Section       28  __scatter_zi.o(!!handler_zi)
    .ARM.Collect$$_printf_percent$$00000000  0x080101e4   Section        0  _printf_percent.o(.ARM.Collect$$_printf_percent$$00000000)
    .ARM.Collect$$_printf_percent$$00000001  0x080101e4   Section        6  _printf_n.o(.ARM.Collect$$_printf_percent$$00000001)
    .ARM.Collect$$_printf_percent$$00000002  0x080101ea   Section        6  _printf_p.o(.ARM.Collect$$_printf_percent$$00000002)
    .ARM.Collect$$_printf_percent$$00000003  0x080101f0   Section        6  _printf_f.o(.ARM.Collect$$_printf_percent$$00000003)
    .ARM.Collect$$_printf_percent$$00000004  0x080101f6   Section        6  _printf_e.o(.ARM.Collect$$_printf_percent$$00000004)
    .ARM.Collect$$_printf_percent$$00000005  0x080101fc   Section        6  _printf_g.o(.ARM.Collect$$_printf_percent$$00000005)
    .ARM.Collect$$_printf_percent$$00000006  0x08010202   Section        6  _printf_a.o(.ARM.Collect$$_printf_percent$$00000006)
    .ARM.Collect$$_printf_percent$$00000007  0x08010208   Section       10  _printf_ll.o(.ARM.Collect$$_printf_percent$$00000007)
    .ARM.Collect$$_printf_percent$$00000008  0x08010212   Section        6  _printf_i.o(.ARM.Collect$$_printf_percent$$00000008)
    .ARM.Collect$$_printf_percent$$00000009  0x08010218   Section        6  _printf_d.o(.ARM.Collect$$_printf_percent$$00000009)
    .ARM.Collect$$_printf_percent$$0000000A  0x0801021e   Section        6  _printf_u.o(.ARM.Collect$$_printf_percent$$0000000A)
    .ARM.Collect$$_printf_percent$$0000000B  0x08010224   Section        6  _printf_o.o(.ARM.Collect$$_printf_percent$$0000000B)
    .ARM.Collect$$_printf_percent$$0000000C  0x0801022a   Section        6  _printf_x.o(.ARM.Collect$$_printf_percent$$0000000C)
    .ARM.Collect$$_printf_percent$$0000000D  0x08010230   Section        6  _printf_lli.o(.ARM.Collect$$_printf_percent$$0000000D)
    .ARM.Collect$$_printf_percent$$0000000E  0x08010236   Section        6  _printf_lld.o(.ARM.Collect$$_printf_percent$$0000000E)
    .ARM.Collect$$_printf_percent$$0000000F  0x0801023c   Section        6  _printf_llu.o(.ARM.Collect$$_printf_percent$$0000000F)
    .ARM.Collect$$_printf_percent$$00000010  0x08010242   Section        6  _printf_llo.o(.ARM.Collect$$_printf_percent$$00000010)
    .ARM.Collect$$_printf_percent$$00000011  0x08010248   Section        6  _printf_llx.o(.ARM.Collect$$_printf_percent$$00000011)
    .ARM.Collect$$_printf_percent$$00000012  0x0801024e   Section       10  _printf_l.o(.ARM.Collect$$_printf_percent$$00000012)
    .ARM.Collect$$_printf_percent$$00000013  0x08010258   Section        6  _printf_c.o(.ARM.Collect$$_printf_percent$$00000013)
    .ARM.Collect$$_printf_percent$$00000014  0x0801025e   Section        6  _printf_s.o(.ARM.Collect$$_printf_percent$$00000014)
    .ARM.Collect$$_printf_percent$$00000015  0x08010264   Section        6  _printf_lc.o(.ARM.Collect$$_printf_percent$$00000015)
    .ARM.Collect$$_printf_percent$$00000016  0x0801026a   Section        6  _printf_ls.o(.ARM.Collect$$_printf_percent$$00000016)
    .ARM.Collect$$_printf_percent$$00000017  0x08010270   Section        4  _printf_percent_end.o(.ARM.Collect$$_printf_percent$$00000017)
    .ARM.Collect$$libinit$$00000000          0x08010274   Section        2  libinit.o(.ARM.Collect$$libinit$$00000000)
    .ARM.Collect$$libinit$$00000002          0x08010276   Section        0  libinit2.o(.ARM.Collect$$libinit$$00000002)
    .ARM.Collect$$libinit$$00000008          0x08010276   Section        0  libinit2.o(.ARM.Collect$$libinit$$00000008)
    .ARM.Collect$$libinit$$0000000A          0x08010276   Section        0  libinit2.o(.ARM.Collect$$libinit$$0000000A)
    .ARM.Collect$$libinit$$0000000C          0x08010276   Section        0  libinit2.o(.ARM.Collect$$libinit$$0000000C)
    .ARM.Collect$$libinit$$0000000D          0x08010276   Section        6  libinit2.o(.ARM.Collect$$libinit$$0000000D)
    .ARM.Collect$$libinit$$0000000F          0x0801027c   Section        0  libinit2.o(.ARM.Collect$$libinit$$0000000F)
    .ARM.Collect$$libinit$$00000010          0x0801027c   Section       12  libinit2.o(.ARM.Collect$$libinit$$00000010)
    .ARM.Collect$$libinit$$00000011          0x08010288   Section        0  libinit2.o(.ARM.Collect$$libinit$$00000011)
    .ARM.Collect$$libinit$$00000013          0x08010288   Section        0  libinit2.o(.ARM.Collect$$libinit$$00000013)
    .ARM.Collect$$libinit$$00000014          0x08010288   Section       10  libinit2.o(.ARM.Collect$$libinit$$00000014)
    .ARM.Collect$$libinit$$00000015          0x08010292   Section        0  libinit2.o(.ARM.Collect$$libinit$$00000015)
    .ARM.Collect$$libinit$$00000017          0x08010292   Section        0  libinit2.o(.ARM.Collect$$libinit$$00000017)
    .ARM.Collect$$libinit$$00000019          0x08010292   Section        0  libinit2.o(.ARM.Collect$$libinit$$00000019)
    .ARM.Collect$$libinit$$0000001B          0x08010292   Section        0  libinit2.o(.ARM.Collect$$libinit$$0000001B)
    .ARM.Collect$$libinit$$0000001D          0x08010292   Section        0  libinit2.o(.ARM.Collect$$libinit$$0000001D)
    .ARM.Collect$$libinit$$0000001F          0x08010292   Section        0  libinit2.o(.ARM.Collect$$libinit$$0000001F)
    .ARM.Collect$$libinit$$00000021          0x08010292   Section        0  libinit2.o(.ARM.Collect$$libinit$$00000021)
    .ARM.Collect$$libinit$$00000023          0x08010292   Section        0  libinit2.o(.ARM.Collect$$libinit$$00000023)
    .ARM.Collect$$libinit$$0000002A          0x08010292   Section        0  libinit2.o(.ARM.Collect$$libinit$$0000002A)
    .ARM.Collect$$libinit$$0000002C          0x08010292   Section        0  libinit2.o(.ARM.Collect$$libinit$$0000002C)
    .ARM.Collect$$libinit$$0000002E          0x08010292   Section        0  libinit2.o(.ARM.Collect$$libinit$$0000002E)
    .ARM.Collect$$libinit$$00000030          0x08010292   Section        0  libinit2.o(.ARM.Collect$$libinit$$00000030)
    .ARM.Collect$$libinit$$00000031          0x08010292   Section        2  libinit2.o(.ARM.Collect$$libinit$$00000031)
    .ARM.Collect$$libshutdown$$00000000      0x08010294   Section        2  libshutdown.o(.ARM.Collect$$libshutdown$$00000000)
    .ARM.Collect$$libshutdown$$00000003      0x08010296   Section        0  libshutdown2.o(.ARM.Collect$$libshutdown$$00000003)
    .ARM.Collect$$libshutdown$$00000006      0x08010296   Section        0  libshutdown2.o(.ARM.Collect$$libshutdown$$00000006)
    .ARM.Collect$$libshutdown$$00000009      0x08010296   Section        0  libshutdown2.o(.ARM.Collect$$libshutdown$$00000009)
    .ARM.Collect$$libshutdown$$0000000B      0x08010296   Section        0  libshutdown2.o(.ARM.Collect$$libshutdown$$0000000B)
    .ARM.Collect$$libshutdown$$0000000E      0x08010296   Section        0  libshutdown2.o(.ARM.Collect$$libshutdown$$0000000E)
    .ARM.Collect$$libshutdown$$0000000F      0x08010296   Section        2  libshutdown2.o(.ARM.Collect$$libshutdown$$0000000F)
    .ARM.Collect$$rtentry$$00000000          0x08010298   Section        0  rtentry.o(.ARM.Collect$$rtentry$$00000000)
    .ARM.Collect$$rtentry$$00000002          0x08010298   Section        0  rtentry2.o(.ARM.Collect$$rtentry$$00000002)
    .ARM.Collect$$rtentry$$00000004          0x08010298   Section        6  rtentry4.o(.ARM.Collect$$rtentry$$00000004)
    .ARM.Collect$$rtentry$$00000009          0x0801029e   Section        0  rtentry2.o(.ARM.Collect$$rtentry$$00000009)
    .ARM.Collect$$rtentry$$0000000A          0x0801029e   Section        4  rtentry2.o(.ARM.Collect$$rtentry$$0000000A)
    .ARM.Collect$$rtentry$$0000000C          0x080102a2   Section        0  rtentry2.o(.ARM.Collect$$rtentry$$0000000C)
    .ARM.Collect$$rtentry$$0000000D          0x080102a2   Section        8  rtentry2.o(.ARM.Collect$$rtentry$$0000000D)
    .ARM.Collect$$rtexit$$00000000           0x080102aa   Section        2  rtexit.o(.ARM.Collect$$rtexit$$00000000)
    .ARM.Collect$$rtexit$$00000002           0x080102ac   Section        0  rtexit2.o(.ARM.Collect$$rtexit$$00000002)
    .ARM.Collect$$rtexit$$00000003           0x080102ac   Section        4  rtexit2.o(.ARM.Collect$$rtexit$$00000003)
    .ARM.Collect$$rtexit$$00000004           0x080102b0   Section        6  rtexit2.o(.ARM.Collect$$rtexit$$00000004)
    .emb_text                                0x080102b8   Section        6  sys.o(.emb_text)
    .text                                    0x080102c0   Section        0  main.o(.text)
    .text                                    0x08010560   Section        0  system_stm32f10x.o(.text)
    SetSysClockTo72                          0x08010561   Thumb Code   214  system_stm32f10x.o(.text)
    SetSysClock                              0x08010637   Thumb Code     8  system_stm32f10x.o(.text)
    .text                                    0x08010740   Section        0  led.o(.text)
    .text                                    0x0801078c   Section        0  key.o(.text)
    .text                                    0x08010890   Section        0  beep.o(.text)
    .text                                    0x080108c8   Section        0  timer.o(.text)
    .text                                    0x08010978   Section        0  flash.o(.text)
    .text                                    0x08010cd8   Section        0  spi.o(.text)
    .text                                    0x08010de0   Section        0  usart4.o(.text)
    .text                                    0x08010ff4   Section        0  delay.o(.text)
    .text                                    0x08011140   Section        0  sys.o(.text)
    .text                                    0x080111ac   Section        0  usart.o(.text)
    .text                                    0x080112fc   Section       64  startup_stm32f10x_hd.o(.text)
    .text                                    0x0801133c   Section        0  misc.o(.text)
    .text                                    0x08011418   Section        0  stm32f10x_gpio.o(.text)
    .text                                    0x08011774   Section        0  stm32f10x_rcc.o(.text)
    .text                                    0x08011b18   Section        0  stm32f10x_tim.o(.text)
    TI4_Config                               0x08011fbf   Thumb Code   130  stm32f10x_tim.o(.text)
    TI3_Config                               0x08012053   Thumb Code   122  stm32f10x_tim.o(.text)
    TI2_Config                               0x080120e7   Thumb Code   130  stm32f10x_tim.o(.text)
    TI1_Config                               0x0801217b   Thumb Code   108  stm32f10x_tim.o(.text)
    .text                                    0x08012934   Section        0  stm32f10x_usart.o(.text)
    .text                                    0x08012d3c   Section        0  stm32f10x_spi.o(.text)
    .text                                    0x08013048   Section        0  stm32f10x_flash.o(.text)
    .text                                    0x08013604   Section        0  bsp.o(.text)
    .text                                    0x08013688   Section        0  cpu_core.o(.text)
    CPU_NameInit                             0x080136b3   Thumb Code     8  cpu_core.o(.text)
    CPU_TS_Init                              0x080136bb   Thumb Code    14  cpu_core.o(.text)
    .text                                    0x08013934   Section       52  cpu_a.o(.text)
    .text                                    0x08013968   Section        0  lib_ascii.o(.text)
    .text                                    0x08013bc0   Section        0  lib_mem.o(.text)
    Mem_SegAlloc                             0x08013dd7   Thumb Code    60  lib_mem.o(.text)
    Mem_SegCalcTotSize                       0x08013e13   Thumb Code    60  lib_mem.o(.text)
    .text                                    0x08014588   Section        0  lib_str.o(.text)
    Str_FmtNbr_Int32                         0x08014a41   Thumb Code   476  lib_str.o(.text)
    Str_ParseNbr_Int32                       0x08014c89   Thumb Code   446  lib_str.o(.text)
    .text                                    0x08014eb4   Section      544  lib_mem_a.o(.text)
    .text                                    0x080150d4   Section        0  os_cfg_app.o(.text)
    .text                                    0x080151d0   Section        0  os_core.o(.text)
    .text                                    0x08015dc0   Section        0  os_dbg.o(.text)
    .text                                    0x08015f70   Section        0  os_flag.o(.text)
    .text                                    0x08016d98   Section        0  os_int.o(.text)
    .text                                    0x080171c8   Section        0  os_mem.o(.text)
    .text                                    0x08017400   Section        0  os_msg.o(.text)
    .text                                    0x0801762c   Section        0  os_mutex.o(.text)
    .text                                    0x08018100   Section        0  os_prio.o(.text)
    .text                                    0x0801817c   Section        0  os_q.o(.text)
    .text                                    0x08018a54   Section        0  os_sem.o(.text)
    .text                                    0x08019284   Section        0  os_stat.o(.text)
    .text                                    0x080198bc   Section        0  os_task.o(.text)
    .text                                    0x0801b3f8   Section        0  os_tick.o(.text)
    .text                                    0x0801b8f4   Section        0  os_time.o(.text)
    .text                                    0x0801be58   Section        0  os_tmr.o(.text)
    .text                                    0x0801c670   Section        0  os_cpu_c.o(.text)
    .text                                    0x0801c8d0   Section        0  malloc.o(.text)
    .text                                    0x0801cafc   Section        0  looplist.o(.text)
    .text                                    0x0801ce0c   Section        0  sha1.o(.text)
    tpm_sha1_transform                       0x0801ce0d   Thumb Code  5478  sha1.o(.text)
    .text                                    0x0801e580   Section        0  stmflash.o(.text)
    .text                                    0x0801e76c   Section        0  iap.o(.text)
    .text                                    0x0801e928   Section        2  use_no_semi_2.o(.text)
    .text                                    0x0801e92a   Section      238  lludivv7m.o(.text)
    .text                                    0x0801ea18   Section        0  c89vsprintf.o(.text)
    .text                                    0x0801ea3c   Section        0  __2printf.o(.text)
    .text                                    0x0801ea54   Section        0  _printf_pad.o(.text)
    .text                                    0x0801eaa4   Section        0  _printf_hex_int_ll_ptr.o(.text)
    _printf_hex_common                       0x0801eaa5   Thumb Code     0  _printf_hex_int_ll_ptr.o(.text)
    .text                                    0x0801eb38   Section        0  __printf_flags_ss_wp.o(.text)
    .text                                    0x0801ecc0   Section        0  strlen.o(.text)
    .text                                    0x0801ecfe   Section      138  rt_memcpy_v6.o(.text)
    .text                                    0x0801ed88   Section       78  rt_memclr_w.o(.text)
    .text                                    0x0801edd6   Section        0  heapauxi.o(.text)
    .text                                    0x0801eddc   Section        2  use_no_semi.o(.text)
    .text                                    0x0801edde   Section        0  _printf_truncate.o(.text)
    .text                                    0x0801ee02   Section        0  _printf_str.o(.text)
    .text                                    0x0801ee54   Section        0  _printf_intcommon.o(.text)
    .text                                    0x0801ef08   Section        0  _printf_dec.o(.text)
    .text                                    0x0801ef7c   Section        0  _printf_charcount.o(.text)
    .text                                    0x0801efa4   Section        0  _printf_char_common.o(.text)
    _printf_input_char                       0x0801efa5   Thumb Code    10  _printf_char_common.o(.text)
    .text                                    0x0801efd4   Section        0  _sputc.o(.text)
    .text                                    0x0801efe0   Section        0  _printf_char_file.o(.text)
    .text                                    0x0801f004   Section        0  _printf_wctomb.o(.text)
    .text                                    0x0801f0c0   Section        0  _printf_longlong_dec.o(.text)
    .text                                    0x0801f138   Section        0  _printf_oct_int_ll.o(.text)
    _printf_longlong_oct_internal            0x0801f139   Thumb Code     0  _printf_oct_int_ll.o(.text)
    .text                                    0x0801f1a8   Section      100  rt_memcpy_w.o(.text)
    .text                                    0x0801f20c   Section      138  lludiv10.o(.text)
    .text                                    0x0801f296   Section        0  _printf_fp_dec.o(.text)
    _fp_digits                               0x0801f299   Thumb Code   428  _printf_fp_dec.o(.text)
    .text                                    0x0801f6ac   Section        0  _printf_char.o(.text)
    .text                                    0x0801f6d8   Section        0  _printf_wchar.o(.text)
    .text                                    0x0801f704   Section        0  ferror.o(.text)
    .text                                    0x0801f70c   Section        0  _wcrtomb.o(.text)
    .text                                    0x0801f74c   Section       74  sys_stackheap_outer.o(.text)
    .text                                    0x0801f798   Section       16  rt_ctype_table.o(.text)
    .text                                    0x0801f7a8   Section        8  rt_locale_intlibspace.o(.text)
    .text                                    0x0801f7b0   Section        0  _printf_fp_infnan.o(.text)
    .text                                    0x0801f830   Section        0  bigflt0.o(.text)
    .text                                    0x0801f908   Section        0  exit.o(.text)
    .text                                    0x0801f914   Section        8  libspace.o(.text)
    .text                                    0x0801f91c   Section      128  strcmpv7m.o(.text)
    CL$$btod_d2e                             0x0801f99c   Section       62  btod.o(CL$$btod_d2e)
    CL$$btod_d2e_denorm_low                  0x0801f9da   Section       70  btod.o(CL$$btod_d2e_denorm_low)
    CL$$btod_d2e_norm_op1                    0x0801fa20   Section       96  btod.o(CL$$btod_d2e_norm_op1)
    CL$$btod_div_common                      0x0801fa80   Section      824  btod.o(CL$$btod_div_common)
    CL$$btod_e2e                             0x0801fdb8   Section      198  btod.o(CL$$btod_e2e)
    CL$$btod_ediv                            0x0801fe7e   Section       40  btod.o(CL$$btod_ediv)
    CL$$btod_emul                            0x0801fea6   Section       40  btod.o(CL$$btod_emul)
    CL$$btod_mult_common                     0x0801fece   Section      580  btod.o(CL$$btod_mult_common)
    CODE                                     0x08020114   Section      152  os_cpu_a.o(CODE)
    i.__ARM_fpclassify                       0x080201ac   Section        0  fpclassify.o(i.__ARM_fpclassify)
    i._is_digit                              0x080201d4   Section        0  __printf_wp.o(i._is_digit)
    locale$$code                             0x080201e4   Section       44  lc_numeric_c.o(locale$$code)
    locale$$code                             0x08020210   Section       44  lc_ctype_c.o(locale$$code)
    x$fpl$printf1                            0x0802023c   Section        4  printf1.o(x$fpl$printf1)
    .constdata                               0x08020240   Section      260  cpu_core.o(.constdata)
    x$fpl$usenofp                            0x08020240   Section        0  usenofp.o(x$fpl$usenofp)
    CPU_CntLeadZerosTbl                      0x08020240   Data         256  cpu_core.o(.constdata)
    .constdata                               0x08020344   Section      148  lib_str.o(.constdata)
    Str_MultOvfThTbl_Int32U                  0x08020344   Data         148  lib_str.o(.constdata)
    .constdata                               0x080203d8   Section      164  os_cfg_app.o(.constdata)
    .constdata                               0x0802047c   Section      364  os_dbg.o(.constdata)
    .constdata                               0x080205e8   Section       24  malloc.o(.constdata)
    .constdata                               0x08020600   Section       40  _printf_hex_int_ll_ptr.o(.constdata)
    uc_hextab                                0x08020600   Data          20  _printf_hex_int_ll_ptr.o(.constdata)
    lc_hextab                                0x08020614   Data          20  _printf_hex_int_ll_ptr.o(.constdata)
    .constdata                               0x08020628   Section       17  __printf_flags_ss_wp.o(.constdata)
    maptable                                 0x08020628   Data          17  __printf_flags_ss_wp.o(.constdata)
    .constdata                               0x0802063c   Section        8  _printf_wctomb.o(.constdata)
    initial_mbstate                          0x0802063c   Data           8  _printf_wctomb.o(.constdata)
    .constdata                               0x08020644   Section      148  bigflt0.o(.constdata)
    tenpwrs_x                                0x08020644   Data          60  bigflt0.o(.constdata)
    tenpwrs_i                                0x08020680   Data          64  bigflt0.o(.constdata)
    .conststring                             0x080206d8   Section       17  sha1.o(.conststring)
    locale$$data                             0x0802070c   Section       28  lc_numeric_c.o(locale$$data)
    __lcnum_c_name                           0x08020710   Data           2  lc_numeric_c.o(locale$$data)
    __lcnum_c_start                          0x08020718   Data           0  lc_numeric_c.o(locale$$data)
    __lcnum_c_point                          0x08020724   Data           0  lc_numeric_c.o(locale$$data)
    __lcnum_c_thousands                      0x08020726   Data           0  lc_numeric_c.o(locale$$data)
    __lcnum_c_grouping                       0x08020727   Data           0  lc_numeric_c.o(locale$$data)
    locale$$data                             0x08020728   Section      272  lc_ctype_c.o(locale$$data)
    __lcnum_c_end                            0x08020728   Data           0  lc_numeric_c.o(locale$$data)
    __lcctype_c_name                         0x0802072c   Data           2  lc_ctype_c.o(locale$$data)
    __lcctype_c_start                        0x08020734   Data           0  lc_ctype_c.o(locale$$data)
    __lcctype_c_end                          0x08020838   Data           0  lc_ctype_c.o(locale$$data)
    .data                                    0x20000000   Section       20  system_stm32f10x.o(.data)
    .data                                    0x20000014   Section        1  key.o(.data)
    key_up                                   0x20000014   Data           1  key.o(.data)
    .data                                    0x20000015   Section        1  timer.o(.data)
    .data                                    0x20000016   Section        2  flash.o(.data)
    .data                                    0x20000018   Section       10  usart4.o(.data)
    .data                                    0x20000022   Section        4  delay.o(.data)
    fac_us                                   0x20000022   Data           1  delay.o(.data)
    fac_ms                                   0x20000024   Data           2  delay.o(.data)
    .data                                    0x20000028   Section        4  sys.o(.data)
    .data                                    0x2000002c   Section        6  usart.o(.data)
    .data                                    0x20000032   Section       20  stm32f10x_rcc.o(.data)
    APBAHBPrescTable                         0x20000032   Data          16  stm32f10x_rcc.o(.data)
    ADCPrescTable                            0x20000042   Data           4  stm32f10x_rcc.o(.data)
    .data                                    0x20000048   Section        4  cpu_core.o(.data)
    .data                                    0x2000004c   Section        4  lib_mem.o(.data)
    .data                                    0x20000050   Section        8  os_prio.o(.data)
    .data                                    0x20000058   Section      192  os_var.o(.data)
    .data                                    0x20000118   Section        4  os_cpu_c.o(.data)
    .data                                    0x2000011c   Section       28  malloc.o(.data)
    .data                                    0x20000138   Section        8  sha1.o(.data)
    .bss                                     0x20000140   Section     2136  main.o(.bss)
    START_TASK_STK                           0x20000208   Data         512  main.o(.bss)
    START1_TASK_STK                          0x200004d0   Data         512  main.o(.bss)
    START2_TASK_STK                          0x20000798   Data         512  main.o(.bss)
    .bss                                     0x20000998   Section     3088  usart4.o(.bss)
    .bss                                     0x200015a8   Section      200  usart.o(.bss)
    .bss                                     0x20001670   Section       16  cpu_core.o(.bss)
    .bss                                     0x20001680   Section     1096  lib_mem.o(.bss)
    .bss                                     0x20001ac8   Section     5264  os_cfg_app.o(.bss)
    .bss                                     0x20002f58   Section     1760  os_var.o(.bss)
    .bss                                     0x20003640   Section    21760  malloc.o(.bss)
    .bss                                     0x20008b40   Section     2048  stmflash.o(.bss)
    .bss                                     0x20009340   Section       96  libspace.o(.bss)
    HEAP                                     0x200093a0   Section      512  startup_stm32f10x_hd.o(HEAP)
    Heap_Mem                                 0x200093a0   Data         512  startup_stm32f10x_hd.o(HEAP)
    STACK                                    0x200095a0   Section     1024  startup_stm32f10x_hd.o(STACK)
    Stack_Mem                                0x200095a0   Data        1024  startup_stm32f10x_hd.o(STACK)
    __initial_sp                             0x200099a0   Data           0  startup_stm32f10x_hd.o(STACK)
    .ARM.__AT_0x68000000                     0x68000000   Section    20480  malloc.o(.ARM.__AT_0x68000000)
    .ARM.__AT_0x68005000                     0x68005000   Section     1280  malloc.o(.ARM.__AT_0x68005000)

    Global Symbols

    Symbol Name                              Value     Ov Type        Size  Object(Section)

    BuildAttributes$$THM_ISAv4$P$D$K$B$S$PE$A:L22UL41UL21$X:L11$S22US41US21$IEEE1$IW$USESV6$~STKCKD$USESV7$~SHL$OTIME$ROPI$IEEEJ$EBA8$UX$STANDARDLIB$REQ8$PRES8$EABIv2 0x00000000   Number         0  anon$$obj.o ABSOLUTE
    __ARM_use_no_argv                        0x00000000   Number         0  main.o ABSOLUTE
    _printf_flags                            0x00000000   Number         0  printf_stubs.o ABSOLUTE
    _printf_return_value                     0x00000000   Number         0  printf_stubs.o ABSOLUTE
    _printf_sizespec                         0x00000000   Number         0  printf_stubs.o ABSOLUTE
    _printf_widthprec                        0x00000000   Number         0  printf_stubs.o ABSOLUTE
    __ARM_exceptions_init                     - Undefined Weak Reference
    __alloca_initialize                       - Undefined Weak Reference
    __cpp_initialize__aeabi_                  - Undefined Weak Reference
    __cxa_finalize                            - Undefined Weak Reference
    __sigvec_lookup                           - Undefined Weak Reference
    _atexit_init                              - Undefined Weak Reference
    _call_atexit_fns                          - Undefined Weak Reference
    _clock_init                               - Undefined Weak Reference
    _fp_trap_init                             - Undefined Weak Reference
    _fp_trap_shutdown                         - Undefined Weak Reference
    _get_lc_collate                           - Undefined Weak Reference
    _get_lc_monetary                          - Undefined Weak Reference
    _get_lc_time                              - Undefined Weak Reference
    _getenv_init                              - Undefined Weak Reference
    _handle_redirection                       - Undefined Weak Reference
    _init_alloc                               - Undefined Weak Reference
    _init_user_alloc                          - Undefined Weak Reference
    _initio                                   - Undefined Weak Reference
    _mutex_acquire                            - Undefined Weak Reference
    _mutex_release                            - Undefined Weak Reference
    _printf_fp_hex                            - Undefined Weak Reference
    _printf_mbtowc                            - Undefined Weak Reference
    _printf_wc                                - Undefined Weak Reference
    _rand_init                                - Undefined Weak Reference
    _signal_finish                            - Undefined Weak Reference
    _signal_init                              - Undefined Weak Reference
    _terminate_alloc                          - Undefined Weak Reference
    _terminate_user_alloc                     - Undefined Weak Reference
    _terminateio                              - Undefined Weak Reference
    __Vectors_Size                           0x00000130   Number         0  startup_stm32f10x_hd.o ABSOLUTE
    __Vectors                                0x08010000   Data           4  startup_stm32f10x_hd.o(RESET)
    __Vectors_End                            0x08010130   Data           0  startup_stm32f10x_hd.o(RESET)
    __main                                   0x08010131   Thumb Code     8  __main.o(!!!main)
    __scatterload                            0x08010139   Thumb Code     0  __scatter.o(!!!scatter)
    __scatterload_rt2                        0x08010139   Thumb Code    44  __scatter.o(!!!scatter)
    __scatterload_rt2_thumb_only             0x08010139   Thumb Code     0  __scatter.o(!!!scatter)
    __scatterload_null                       0x08010147   Thumb Code     0  __scatter.o(!!!scatter)
    __decompress                             0x0801016d   Thumb Code    90  __dczerorl2.o(!!dczerorl2)
    __decompress1                            0x0801016d   Thumb Code     0  __dczerorl2.o(!!dczerorl2)
    __scatterload_zeroinit                   0x080101c9   Thumb Code    28  __scatter_zi.o(!!handler_zi)
    _printf_n                                0x080101e5   Thumb Code     0  _printf_n.o(.ARM.Collect$$_printf_percent$$00000001)
    _printf_percent                          0x080101e5   Thumb Code     0  _printf_percent.o(.ARM.Collect$$_printf_percent$$00000000)
    _printf_p                                0x080101eb   Thumb Code     0  _printf_p.o(.ARM.Collect$$_printf_percent$$00000002)
    _printf_f                                0x080101f1   Thumb Code     0  _printf_f.o(.ARM.Collect$$_printf_percent$$00000003)
    _printf_e                                0x080101f7   Thumb Code     0  _printf_e.o(.ARM.Collect$$_printf_percent$$00000004)
    _printf_g                                0x080101fd   Thumb Code     0  _printf_g.o(.ARM.Collect$$_printf_percent$$00000005)
    _printf_a                                0x08010203   Thumb Code     0  _printf_a.o(.ARM.Collect$$_printf_percent$$00000006)
    _printf_ll                               0x08010209   Thumb Code     0  _printf_ll.o(.ARM.Collect$$_printf_percent$$00000007)
    _printf_i                                0x08010213   Thumb Code     0  _printf_i.o(.ARM.Collect$$_printf_percent$$00000008)
    _printf_d                                0x08010219   Thumb Code     0  _printf_d.o(.ARM.Collect$$_printf_percent$$00000009)
    _printf_u                                0x0801021f   Thumb Code     0  _printf_u.o(.ARM.Collect$$_printf_percent$$0000000A)
    _printf_o                                0x08010225   Thumb Code     0  _printf_o.o(.ARM.Collect$$_printf_percent$$0000000B)
    _printf_x                                0x0801022b   Thumb Code     0  _printf_x.o(.ARM.Collect$$_printf_percent$$0000000C)
    _printf_lli                              0x08010231   Thumb Code     0  _printf_lli.o(.ARM.Collect$$_printf_percent$$0000000D)
    _printf_lld                              0x08010237   Thumb Code     0  _printf_lld.o(.ARM.Collect$$_printf_percent$$0000000E)
    _printf_llu                              0x0801023d   Thumb Code     0  _printf_llu.o(.ARM.Collect$$_printf_percent$$0000000F)
    _printf_llo                              0x08010243   Thumb Code     0  _printf_llo.o(.ARM.Collect$$_printf_percent$$00000010)
    _printf_llx                              0x08010249   Thumb Code     0  _printf_llx.o(.ARM.Collect$$_printf_percent$$00000011)
    _printf_l                                0x0801024f   Thumb Code     0  _printf_l.o(.ARM.Collect$$_printf_percent$$00000012)
    _printf_c                                0x08010259   Thumb Code     0  _printf_c.o(.ARM.Collect$$_printf_percent$$00000013)
    _printf_s                                0x0801025f   Thumb Code     0  _printf_s.o(.ARM.Collect$$_printf_percent$$00000014)
    _printf_lc                               0x08010265   Thumb Code     0  _printf_lc.o(.ARM.Collect$$_printf_percent$$00000015)
    _printf_ls                               0x0801026b   Thumb Code     0  _printf_ls.o(.ARM.Collect$$_printf_percent$$00000016)
    _printf_percent_end                      0x08010271   Thumb Code     0  _printf_percent_end.o(.ARM.Collect$$_printf_percent$$00000017)
    __rt_lib_init                            0x08010275   Thumb Code     0  libinit.o(.ARM.Collect$$libinit$$00000000)
    __rt_lib_init_fp_1                       0x08010277   Thumb Code     0  libinit2.o(.ARM.Collect$$libinit$$00000002)
    __rt_lib_init_heap_1                     0x08010277   Thumb Code     0  libinit2.o(.ARM.Collect$$libinit$$00000008)
    __rt_lib_init_lc_common                  0x08010277   Thumb Code     0  libinit2.o(.ARM.Collect$$libinit$$0000000D)
    __rt_lib_init_rand_1                     0x08010277   Thumb Code     0  libinit2.o(.ARM.Collect$$libinit$$0000000C)
    __rt_lib_init_user_alloc_1               0x08010277   Thumb Code     0  libinit2.o(.ARM.Collect$$libinit$$0000000A)
    __rt_lib_init_lc_collate_1               0x0801027d   Thumb Code     0  libinit2.o(.ARM.Collect$$libinit$$0000000F)
    __rt_lib_init_lc_ctype_2                 0x0801027d   Thumb Code     0  libinit2.o(.ARM.Collect$$libinit$$00000010)
    __rt_lib_init_lc_ctype_1                 0x08010289   Thumb Code     0  libinit2.o(.ARM.Collect$$libinit$$00000011)
    __rt_lib_init_lc_monetary_1              0x08010289   Thumb Code     0  libinit2.o(.ARM.Collect$$libinit$$00000013)
    __rt_lib_init_lc_numeric_2               0x08010289   Thumb Code     0  libinit2.o(.ARM.Collect$$libinit$$00000014)
    __rt_lib_init_alloca_1                   0x08010293   Thumb Code     0  libinit2.o(.ARM.Collect$$libinit$$0000002C)
    __rt_lib_init_argv_1                     0x08010293   Thumb Code     0  libinit2.o(.ARM.Collect$$libinit$$0000002A)
    __rt_lib_init_atexit_1                   0x08010293   Thumb Code     0  libinit2.o(.ARM.Collect$$libinit$$00000019)
    __rt_lib_init_clock_1                    0x08010293   Thumb Code     0  libinit2.o(.ARM.Collect$$libinit$$0000001F)
    __rt_lib_init_cpp_1                      0x08010293   Thumb Code     0  libinit2.o(.ARM.Collect$$libinit$$00000030)
    __rt_lib_init_exceptions_1               0x08010293   Thumb Code     0  libinit2.o(.ARM.Collect$$libinit$$0000002E)
    __rt_lib_init_fp_trap_1                  0x08010293   Thumb Code     0  libinit2.o(.ARM.Collect$$libinit$$0000001D)
    __rt_lib_init_getenv_1                   0x08010293   Thumb Code     0  libinit2.o(.ARM.Collect$$libinit$$00000021)
    __rt_lib_init_lc_numeric_1               0x08010293   Thumb Code     0  libinit2.o(.ARM.Collect$$libinit$$00000015)
    __rt_lib_init_lc_time_1                  0x08010293   Thumb Code     0  libinit2.o(.ARM.Collect$$libinit$$00000017)
    __rt_lib_init_return                     0x08010293   Thumb Code     0  libinit2.o(.ARM.Collect$$libinit$$00000031)
    __rt_lib_init_signal_1                   0x08010293   Thumb Code     0  libinit2.o(.ARM.Collect$$libinit$$0000001B)
    __rt_lib_init_stdio_1                    0x08010293   Thumb Code     0  libinit2.o(.ARM.Collect$$libinit$$00000023)
    __rt_lib_shutdown                        0x08010295   Thumb Code     0  libshutdown.o(.ARM.Collect$$libshutdown$$00000000)
    __rt_lib_shutdown_fp_trap_1              0x08010297   Thumb Code     0  libshutdown2.o(.ARM.Collect$$libshutdown$$00000006)
    __rt_lib_shutdown_heap_1                 0x08010297   Thumb Code     0  libshutdown2.o(.ARM.Collect$$libshutdown$$0000000E)
    __rt_lib_shutdown_return                 0x08010297   Thumb Code     0  libshutdown2.o(.ARM.Collect$$libshutdown$$0000000F)
    __rt_lib_shutdown_signal_1               0x08010297   Thumb Code     0  libshutdown2.o(.ARM.Collect$$libshutdown$$00000009)
    __rt_lib_shutdown_stdio_1                0x08010297   Thumb Code     0  libshutdown2.o(.ARM.Collect$$libshutdown$$00000003)
    __rt_lib_shutdown_user_alloc_1           0x08010297   Thumb Code     0  libshutdown2.o(.ARM.Collect$$libshutdown$$0000000B)
    __rt_entry                               0x08010299   Thumb Code     0  rtentry.o(.ARM.Collect$$rtentry$$00000000)
    __rt_entry_presh_1                       0x08010299   Thumb Code     0  rtentry2.o(.ARM.Collect$$rtentry$$00000002)
    __rt_entry_sh                            0x08010299   Thumb Code     0  rtentry4.o(.ARM.Collect$$rtentry$$00000004)
    __rt_entry_li                            0x0801029f   Thumb Code     0  rtentry2.o(.ARM.Collect$$rtentry$$0000000A)
    __rt_entry_postsh_1                      0x0801029f   Thumb Code     0  rtentry2.o(.ARM.Collect$$rtentry$$00000009)
    __rt_entry_main                          0x080102a3   Thumb Code     0  rtentry2.o(.ARM.Collect$$rtentry$$0000000D)
    __rt_entry_postli_1                      0x080102a3   Thumb Code     0  rtentry2.o(.ARM.Collect$$rtentry$$0000000C)
    __rt_exit                                0x080102ab   Thumb Code     0  rtexit.o(.ARM.Collect$$rtexit$$00000000)
    __rt_exit_ls                             0x080102ad   Thumb Code     0  rtexit2.o(.ARM.Collect$$rtexit$$00000003)
    __rt_exit_prels_1                        0x080102ad   Thumb Code     0  rtexit2.o(.ARM.Collect$$rtexit$$00000002)
    __rt_exit_exit                           0x080102b1   Thumb Code     0  rtexit2.o(.ARM.Collect$$rtexit$$00000004)
    MSR_MSP                                  0x080102b9   Thumb Code     6  sys.o(.emb_text)
    start2_task                              0x080102c1   Thumb Code    30  main.o(.text)
    start1_task                              0x080102df   Thumb Code    36  main.o(.text)
    start_task                               0x08010303   Thumb Code   260  main.o(.text)
    main                                     0x08010407   Thumb Code   254  main.o(.text)
    SystemInit                               0x0801063f   Thumb Code    78  system_stm32f10x.o(.text)
    SystemCoreClockUpdate                    0x0801068d   Thumb Code   142  system_stm32f10x.o(.text)
    led_init                                 0x08010741   Thumb Code    58  led.o(.text)
    key_init                                 0x0801078d   Thumb Code    58  key.o(.text)
    KEY_Scan                                 0x080107c7   Thumb Code   188  key.o(.text)
    beep_init                                0x08010891   Thumb Code    46  beep.o(.text)
    TIM3_Int_Init                            0x080108c9   Thumb Code   104  timer.o(.text)
    TIM3_IRQHandler                          0x08010931   Thumb Code    42  timer.o(.text)
    SPI_Flash_ReadID                         0x08010979   Thumb Code    64  flash.o(.text)
    SPI_Flash_Init                           0x080109b9   Thumb Code    70  flash.o(.text)
    SPI_Flash_ReadSR                         0x080109ff   Thumb Code    36  flash.o(.text)
    SPI_FLASH_Write_SR                       0x08010a23   Thumb Code    32  flash.o(.text)
    SPI_FLASH_Write_Enable                   0x08010a43   Thumb Code    24  flash.o(.text)
    SPI_FLASH_Write_Disable                  0x08010a5b   Thumb Code    24  flash.o(.text)
    SPI_Flash_Read                           0x08010a73   Thumb Code    74  flash.o(.text)
    SPI_Flash_Wait_Busy                      0x08010abd   Thumb Code    18  flash.o(.text)
    SPI_Flash_Write_Page                     0x08010acf   Thumb Code    80  flash.o(.text)
    SPI_Flash_Write_NoCheck                  0x08010b1f   Thumb Code    70  flash.o(.text)
    SPI_Flash_Erase_Sector                   0x08010b65   Thumb Code    62  flash.o(.text)
    SPI_Flash_Write                          0x08010ba3   Thumb Code   196  flash.o(.text)
    SPI_Flash_Erase_Chip                     0x08010c67   Thumb Code    36  flash.o(.text)
    SPI_Flash_PowerDown                      0x08010c8b   Thumb Code    30  flash.o(.text)
    SPI_Flash_WAKEUP                         0x08010ca9   Thumb Code    30  flash.o(.text)
    SPI2_ReadWriteByte                       0x08010cd9   Thumb Code    78  spi.o(.text)
    SPI2_Init                                0x08010d27   Thumb Code   140  spi.o(.text)
    SPI2_SetSpeed                            0x08010db3   Thumb Code    36  spi.o(.text)
    UART4_IRQHandler                         0x08010de1   Thumb Code    76  usart4.o(.text)
    usart4Recv                               0x08010e2d   Thumb Code    90  usart4.o(.text)
    usart4_init                              0x08010e87   Thumb Code   196  usart4.o(.text)
    u4_send                                  0x08010f4b   Thumb Code    54  usart4.o(.text)
    u4_printf                                0x08010f81   Thumb Code    72  usart4.o(.text)
    delay_osschedlock                        0x08010ff5   Thumb Code    10  delay.o(.text)
    delay_osschedunlock                      0x08010fff   Thumb Code    10  delay.o(.text)
    delay_ostimedly                          0x08011009   Thumb Code    16  delay.o(.text)
    SysTick_Handler                          0x08011019   Thumb Code    24  delay.o(.text)
    delay_init                               0x08011031   Thumb Code    92  delay.o(.text)
    delay_us                                 0x0801108d   Thumb Code    86  delay.o(.text)
    delay_ms                                 0x080110e3   Thumb Code    66  delay.o(.text)
    WFI_SET                                  0x08011141   Thumb Code     4  sys.o(.text)
    INTX_DISABLE                             0x08011145   Thumb Code     4  sys.o(.text)
    INTX_ENABLE                              0x08011149   Thumb Code     4  sys.o(.text)
    NVIC_Configuration                       0x0801114d   Thumb Code    12  sys.o(.text)
    sys_srand                                0x08011159   Thumb Code     6  sys.o(.text)
    sys_rand                                 0x0801115f   Thumb Code    30  sys.o(.text)
    Reset_MCU                                0x0801117d   Thumb Code    32  sys.o(.text)
    _sys_exit                                0x080111ad   Thumb Code     6  usart.o(.text)
    fputc                                    0x080111b3   Thumb Code    24  usart.o(.text)
    uart_init                                0x080111cb   Thumb Code   158  usart.o(.text)
    USART1_IRQHandler                        0x08011269   Thumb Code   130  usart.o(.text)
    Reset_Handler                            0x080112fd   Thumb Code     8  startup_stm32f10x_hd.o(.text)
    NMI_Handler                              0x08011305   Thumb Code     2  startup_stm32f10x_hd.o(.text)
    HardFault_Handler                        0x08011307   Thumb Code     2  startup_stm32f10x_hd.o(.text)
    MemManage_Handler                        0x08011309   Thumb Code     2  startup_stm32f10x_hd.o(.text)
    BusFault_Handler                         0x0801130b   Thumb Code     2  startup_stm32f10x_hd.o(.text)
    UsageFault_Handler                       0x0801130d   Thumb Code     2  startup_stm32f10x_hd.o(.text)
    SVC_Handler                              0x0801130f   Thumb Code     2  startup_stm32f10x_hd.o(.text)
    DebugMon_Handler                         0x08011311   Thumb Code     2  startup_stm32f10x_hd.o(.text)
    ADC1_2_IRQHandler                        0x08011317   Thumb Code     0  startup_stm32f10x_hd.o(.text)
    ADC3_IRQHandler                          0x08011317   Thumb Code     0  startup_stm32f10x_hd.o(.text)
    CAN1_RX1_IRQHandler                      0x08011317   Thumb Code     0  startup_stm32f10x_hd.o(.text)
    CAN1_SCE_IRQHandler                      0x08011317   Thumb Code     0  startup_stm32f10x_hd.o(.text)
    DMA1_Channel1_IRQHandler                 0x08011317   Thumb Code     0  startup_stm32f10x_hd.o(.text)
    DMA1_Channel2_IRQHandler                 0x08011317   Thumb Code     0  startup_stm32f10x_hd.o(.text)
    DMA1_Channel3_IRQHandler                 0x08011317   Thumb Code     0  startup_stm32f10x_hd.o(.text)
    DMA1_Channel4_IRQHandler                 0x08011317   Thumb Code     0  startup_stm32f10x_hd.o(.text)
    DMA1_Channel5_IRQHandler                 0x08011317   Thumb Code     0  startup_stm32f10x_hd.o(.text)
    DMA1_Channel6_IRQHandler                 0x08011317   Thumb Code     0  startup_stm32f10x_hd.o(.text)
    DMA1_Channel7_IRQHandler                 0x08011317   Thumb Code     0  startup_stm32f10x_hd.o(.text)
    DMA2_Channel1_IRQHandler                 0x08011317   Thumb Code     0  startup_stm32f10x_hd.o(.text)
    DMA2_Channel2_IRQHandler                 0x08011317   Thumb Code     0  startup_stm32f10x_hd.o(.text)
    DMA2_Channel3_IRQHandler                 0x08011317   Thumb Code     0  startup_stm32f10x_hd.o(.text)
    DMA2_Channel4_5_IRQHandler               0x08011317   Thumb Code     0  startup_stm32f10x_hd.o(.text)
    EXTI0_IRQHandler                         0x08011317   Thumb Code     0  startup_stm32f10x_hd.o(.text)
    EXTI15_10_IRQHandler                     0x08011317   Thumb Code     0  startup_stm32f10x_hd.o(.text)
    EXTI1_IRQHandler                         0x08011317   Thumb Code     0  startup_stm32f10x_hd.o(.text)
    EXTI2_IRQHandler                         0x08011317   Thumb Code     0  startup_stm32f10x_hd.o(.text)
    EXTI3_IRQHandler                         0x08011317   Thumb Code     0  startup_stm32f10x_hd.o(.text)
    EXTI4_IRQHandler                         0x08011317   Thumb Code     0  startup_stm32f10x_hd.o(.text)
    EXTI9_5_IRQHandler                       0x08011317   Thumb Code     0  startup_stm32f10x_hd.o(.text)
    FLASH_IRQHandler                         0x08011317   Thumb Code     0  startup_stm32f10x_hd.o(.text)
    FSMC_IRQHandler                          0x08011317   Thumb Code     0  startup_stm32f10x_hd.o(.text)
    I2C1_ER_IRQHandler                       0x08011317   Thumb Code     0  startup_stm32f10x_hd.o(.text)
    I2C1_EV_IRQHandler                       0x08011317   Thumb Code     0  startup_stm32f10x_hd.o(.text)
    I2C2_ER_IRQHandler                       0x08011317   Thumb Code     0  startup_stm32f10x_hd.o(.text)
    I2C2_EV_IRQHandler                       0x08011317   Thumb Code     0  startup_stm32f10x_hd.o(.text)
    PVD_IRQHandler                           0x08011317   Thumb Code     0  startup_stm32f10x_hd.o(.text)
    RCC_IRQHandler                           0x08011317   Thumb Code     0  startup_stm32f10x_hd.o(.text)
    RTCAlarm_IRQHandler                      0x08011317   Thumb Code     0  startup_stm32f10x_hd.o(.text)
    RTC_IRQHandler                           0x08011317   Thumb Code     0  startup_stm32f10x_hd.o(.text)
    SDIO_IRQHandler                          0x08011317   Thumb Code     0  startup_stm32f10x_hd.o(.text)
    SPI1_IRQHandler                          0x08011317   Thumb Code     0  startup_stm32f10x_hd.o(.text)
    SPI2_IRQHandler                          0x08011317   Thumb Code     0  startup_stm32f10x_hd.o(.text)
    SPI3_IRQHandler                          0x08011317   Thumb Code     0  startup_stm32f10x_hd.o(.text)
    TAMPER_IRQHandler                        0x08011317   Thumb Code     0  startup_stm32f10x_hd.o(.text)
    TIM1_BRK_IRQHandler                      0x08011317   Thumb Code     0  startup_stm32f10x_hd.o(.text)
    TIM1_CC_IRQHandler                       0x08011317   Thumb Code     0  startup_stm32f10x_hd.o(.text)
    TIM1_TRG_COM_IRQHandler                  0x08011317   Thumb Code     0  startup_stm32f10x_hd.o(.text)
    TIM1_UP_IRQHandler                       0x08011317   Thumb Code     0  startup_stm32f10x_hd.o(.text)
    TIM2_IRQHandler                          0x08011317   Thumb Code     0  startup_stm32f10x_hd.o(.text)
    TIM4_IRQHandler                          0x08011317   Thumb Code     0  startup_stm32f10x_hd.o(.text)
    TIM5_IRQHandler                          0x08011317   Thumb Code     0  startup_stm32f10x_hd.o(.text)
    TIM6_IRQHandler                          0x08011317   Thumb Code     0  startup_stm32f10x_hd.o(.text)
    TIM7_IRQHandler                          0x08011317   Thumb Code     0  startup_stm32f10x_hd.o(.text)
    TIM8_BRK_IRQHandler                      0x08011317   Thumb Code     0  startup_stm32f10x_hd.o(.text)
    TIM8_CC_IRQHandler                       0x08011317   Thumb Code     0  startup_stm32f10x_hd.o(.text)
    TIM8_TRG_COM_IRQHandler                  0x08011317   Thumb Code     0  startup_stm32f10x_hd.o(.text)
    TIM8_UP_IRQHandler                       0x08011317   Thumb Code     0  startup_stm32f10x_hd.o(.text)
    UART5_IRQHandler                         0x08011317   Thumb Code     0  startup_stm32f10x_hd.o(.text)
    USART2_IRQHandler                        0x08011317   Thumb Code     0  startup_stm32f10x_hd.o(.text)
    USART3_IRQHandler                        0x08011317   Thumb Code     0  startup_stm32f10x_hd.o(.text)
    USBWakeUp_IRQHandler                     0x08011317   Thumb Code     0  startup_stm32f10x_hd.o(.text)
    USB_HP_CAN1_TX_IRQHandler                0x08011317   Thumb Code     0  startup_stm32f10x_hd.o(.text)
    USB_LP_CAN1_RX0_IRQHandler               0x08011317   Thumb Code     0  startup_stm32f10x_hd.o(.text)
    WWDG_IRQHandler                          0x08011317   Thumb Code     0  startup_stm32f10x_hd.o(.text)
    __user_initial_stackheap                 0x08011319   Thumb Code     0  startup_stm32f10x_hd.o(.text)
    NVIC_PriorityGroupConfig                 0x0801133d   Thumb Code    10  misc.o(.text)
    NVIC_Init                                0x08011347   Thumb Code   100  misc.o(.text)
    NVIC_SetVectorTable                      0x080113ab   Thumb Code    14  misc.o(.text)
    NVIC_SystemLPConfig                      0x080113b9   Thumb Code    34  misc.o(.text)
    SysTick_CLKSourceConfig                  0x080113db   Thumb Code    40  misc.o(.text)
    GPIO_DeInit                              0x08011419   Thumb Code   172  stm32f10x_gpio.o(.text)
    GPIO_AFIODeInit                          0x080114c5   Thumb Code    20  stm32f10x_gpio.o(.text)
    GPIO_Init                                0x080114d9   Thumb Code   278  stm32f10x_gpio.o(.text)
    GPIO_StructInit                          0x080115ef   Thumb Code    16  stm32f10x_gpio.o(.text)
    GPIO_ReadInputDataBit                    0x080115ff   Thumb Code    18  stm32f10x_gpio.o(.text)
    GPIO_ReadInputData                       0x08011611   Thumb Code     8  stm32f10x_gpio.o(.text)
    GPIO_ReadOutputDataBit                   0x08011619   Thumb Code    18  stm32f10x_gpio.o(.text)
    GPIO_ReadOutputData                      0x0801162b   Thumb Code     8  stm32f10x_gpio.o(.text)
    GPIO_SetBits                             0x08011633   Thumb Code     4  stm32f10x_gpio.o(.text)
    GPIO_ResetBits                           0x08011637   Thumb Code     4  stm32f10x_gpio.o(.text)
    GPIO_WriteBit                            0x0801163b   Thumb Code    10  stm32f10x_gpio.o(.text)
    GPIO_Write                               0x08011645   Thumb Code     4  stm32f10x_gpio.o(.text)
    GPIO_PinLockConfig                       0x08011649   Thumb Code    18  stm32f10x_gpio.o(.text)
    GPIO_EventOutputConfig                   0x0801165b   Thumb Code    26  stm32f10x_gpio.o(.text)
    GPIO_EventOutputCmd                      0x08011675   Thumb Code     6  stm32f10x_gpio.o(.text)
    GPIO_PinRemapConfig                      0x0801167b   Thumb Code   138  stm32f10x_gpio.o(.text)
    GPIO_EXTILineConfig                      0x08011705   Thumb Code    66  stm32f10x_gpio.o(.text)
    GPIO_ETH_MediaInterfaceConfig            0x08011747   Thumb Code     8  stm32f10x_gpio.o(.text)
    RCC_DeInit                               0x08011775   Thumb Code    64  stm32f10x_rcc.o(.text)
    RCC_HSEConfig                            0x080117b5   Thumb Code    70  stm32f10x_rcc.o(.text)
    RCC_GetFlagStatus                        0x080117fb   Thumb Code    56  stm32f10x_rcc.o(.text)
    RCC_WaitForHSEStartUp                    0x08011833   Thumb Code    56  stm32f10x_rcc.o(.text)
    RCC_AdjustHSICalibrationValue            0x0801186b   Thumb Code    20  stm32f10x_rcc.o(.text)
    RCC_HSICmd                               0x0801187f   Thumb Code     6  stm32f10x_rcc.o(.text)
    RCC_PLLConfig                            0x08011885   Thumb Code    24  stm32f10x_rcc.o(.text)
    RCC_PLLCmd                               0x0801189d   Thumb Code     6  stm32f10x_rcc.o(.text)
    RCC_SYSCLKConfig                         0x080118a3   Thumb Code    18  stm32f10x_rcc.o(.text)
    RCC_GetSYSCLKSource                      0x080118b5   Thumb Code    10  stm32f10x_rcc.o(.text)
    RCC_HCLKConfig                           0x080118bf   Thumb Code    18  stm32f10x_rcc.o(.text)
    RCC_PCLK1Config                          0x080118d1   Thumb Code    18  stm32f10x_rcc.o(.text)
    RCC_PCLK2Config                          0x080118e3   Thumb Code    20  stm32f10x_rcc.o(.text)
    RCC_ITConfig                             0x080118f7   Thumb Code    26  stm32f10x_rcc.o(.text)
    RCC_USBCLKConfig                         0x08011911   Thumb Code     8  stm32f10x_rcc.o(.text)
    RCC_ADCCLKConfig                         0x08011919   Thumb Code    18  stm32f10x_rcc.o(.text)
    RCC_LSEConfig                            0x0801192b   Thumb Code    50  stm32f10x_rcc.o(.text)
    RCC_LSICmd                               0x0801195d   Thumb Code     6  stm32f10x_rcc.o(.text)
    RCC_RTCCLKConfig                         0x08011963   Thumb Code    12  stm32f10x_rcc.o(.text)
    RCC_RTCCLKCmd                            0x0801196f   Thumb Code     8  stm32f10x_rcc.o(.text)
    RCC_GetClocksFreq                        0x08011977   Thumb Code   192  stm32f10x_rcc.o(.text)
    RCC_AHBPeriphClockCmd                    0x08011a37   Thumb Code    26  stm32f10x_rcc.o(.text)
    RCC_APB2PeriphClockCmd                   0x08011a51   Thumb Code    26  stm32f10x_rcc.o(.text)
    RCC_APB1PeriphClockCmd                   0x08011a6b   Thumb Code    26  stm32f10x_rcc.o(.text)
    RCC_APB2PeriphResetCmd                   0x08011a85   Thumb Code    26  stm32f10x_rcc.o(.text)
    RCC_APB1PeriphResetCmd                   0x08011a9f   Thumb Code    26  stm32f10x_rcc.o(.text)
    RCC_BackupResetCmd                       0x08011ab9   Thumb Code     8  stm32f10x_rcc.o(.text)
    RCC_ClockSecuritySystemCmd               0x08011ac1   Thumb Code     6  stm32f10x_rcc.o(.text)
    RCC_MCOConfig                            0x08011ac7   Thumb Code     6  stm32f10x_rcc.o(.text)
    RCC_ClearFlag                            0x08011acd   Thumb Code    14  stm32f10x_rcc.o(.text)
    RCC_GetITStatus                          0x08011adb   Thumb Code    20  stm32f10x_rcc.o(.text)
    RCC_ClearITPendingBit                    0x08011aef   Thumb Code     6  stm32f10x_rcc.o(.text)
    TIM_DeInit                               0x08011b19   Thumb Code   424  stm32f10x_tim.o(.text)
    TIM_TimeBaseInit                         0x08011cc1   Thumb Code   122  stm32f10x_tim.o(.text)
    TIM_OC1Init                              0x08011d3b   Thumb Code   132  stm32f10x_tim.o(.text)
    TIM_OC2Init                              0x08011dbf   Thumb Code   154  stm32f10x_tim.o(.text)
    TIM_OC3Init                              0x08011e59   Thumb Code   150  stm32f10x_tim.o(.text)
    TIM_OC4Init                              0x08011eef   Thumb Code   182  stm32f10x_tim.o(.text)
    TIM_SetIC4Prescaler                      0x08011fa5   Thumb Code    26  stm32f10x_tim.o(.text)
    TIM_SetIC3Prescaler                      0x08012041   Thumb Code    18  stm32f10x_tim.o(.text)
    TIM_SetIC2Prescaler                      0x080120cd   Thumb Code    26  stm32f10x_tim.o(.text)
    TIM_SetIC1Prescaler                      0x08012169   Thumb Code    18  stm32f10x_tim.o(.text)
    TIM_ICInit                               0x080121e7   Thumb Code   150  stm32f10x_tim.o(.text)
    TIM_PWMIConfig                           0x0801227d   Thumb Code   124  stm32f10x_tim.o(.text)
    TIM_BDTRConfig                           0x080122f9   Thumb Code    32  stm32f10x_tim.o(.text)
    TIM_TimeBaseStructInit                   0x08012319   Thumb Code    18  stm32f10x_tim.o(.text)
    TIM_OCStructInit                         0x0801232b   Thumb Code    20  stm32f10x_tim.o(.text)
    TIM_ICStructInit                         0x0801233f   Thumb Code    18  stm32f10x_tim.o(.text)
    TIM_BDTRStructInit                       0x08012351   Thumb Code    40  stm32f10x_tim.o(.text)
    TIM_Cmd                                  0x08012379   Thumb Code    24  stm32f10x_tim.o(.text)
    TIM_CtrlPWMOutputs                       0x08012391   Thumb Code    30  stm32f10x_tim.o(.text)
    TIM_ITConfig                             0x080123af   Thumb Code    18  stm32f10x_tim.o(.text)
    TIM_GenerateEvent                        0x080123c1   Thumb Code     4  stm32f10x_tim.o(.text)
    TIM_DMAConfig                            0x080123c5   Thumb Code    10  stm32f10x_tim.o(.text)
    TIM_DMACmd                               0x080123cf   Thumb Code    18  stm32f10x_tim.o(.text)
    TIM_InternalClockConfig                  0x080123e1   Thumb Code    12  stm32f10x_tim.o(.text)
    TIM_SelectInputTrigger                   0x080123ed   Thumb Code    18  stm32f10x_tim.o(.text)
    TIM_ITRxExternalClockConfig              0x080123ff   Thumb Code    24  stm32f10x_tim.o(.text)
    TIM_TIxExternalClockConfig               0x08012417   Thumb Code    62  stm32f10x_tim.o(.text)
    TIM_ETRConfig                            0x08012455   Thumb Code    28  stm32f10x_tim.o(.text)
    TIM_ETRClockMode1Config                  0x08012471   Thumb Code    54  stm32f10x_tim.o(.text)
    TIM_ETRClockMode2Config                  0x080124a7   Thumb Code    32  stm32f10x_tim.o(.text)
    TIM_PrescalerConfig                      0x080124c7   Thumb Code     6  stm32f10x_tim.o(.text)
    TIM_CounterModeConfig                    0x080124cd   Thumb Code    18  stm32f10x_tim.o(.text)
    TIM_EncoderInterfaceConfig               0x080124df   Thumb Code    66  stm32f10x_tim.o(.text)
    TIM_ForcedOC1Config                      0x08012521   Thumb Code    18  stm32f10x_tim.o(.text)
    TIM_ForcedOC2Config                      0x08012533   Thumb Code    26  stm32f10x_tim.o(.text)
    TIM_ForcedOC3Config                      0x0801254d   Thumb Code    18  stm32f10x_tim.o(.text)
    TIM_ForcedOC4Config                      0x0801255f   Thumb Code    26  stm32f10x_tim.o(.text)
    TIM_ARRPreloadConfig                     0x08012579   Thumb Code    24  stm32f10x_tim.o(.text)
    TIM_SelectCOM                            0x08012591   Thumb Code    24  stm32f10x_tim.o(.text)
    TIM_SelectCCDMA                          0x080125a9   Thumb Code    24  stm32f10x_tim.o(.text)
    TIM_CCPreloadControl                     0x080125c1   Thumb Code    24  stm32f10x_tim.o(.text)
    TIM_OC1PreloadConfig                     0x080125d9   Thumb Code    18  stm32f10x_tim.o(.text)
    TIM_OC2PreloadConfig                     0x080125eb   Thumb Code    26  stm32f10x_tim.o(.text)
    TIM_OC3PreloadConfig                     0x08012605   Thumb Code    18  stm32f10x_tim.o(.text)
    TIM_OC4PreloadConfig                     0x08012617   Thumb Code    26  stm32f10x_tim.o(.text)
    TIM_OC1FastConfig                        0x08012631   Thumb Code    18  stm32f10x_tim.o(.text)
    TIM_OC2FastConfig                        0x08012643   Thumb Code    26  stm32f10x_tim.o(.text)
    TIM_OC3FastConfig                        0x0801265d   Thumb Code    18  stm32f10x_tim.o(.text)
    TIM_OC4FastConfig                        0x0801266f   Thumb Code    26  stm32f10x_tim.o(.text)
    TIM_ClearOC1Ref                          0x08012689   Thumb Code    18  stm32f10x_tim.o(.text)
    TIM_ClearOC2Ref                          0x0801269b   Thumb Code    24  stm32f10x_tim.o(.text)
    TIM_ClearOC3Ref                          0x080126b3   Thumb Code    18  stm32f10x_tim.o(.text)
    TIM_ClearOC4Ref                          0x080126c5   Thumb Code    24  stm32f10x_tim.o(.text)
    TIM_OC1PolarityConfig                    0x080126dd   Thumb Code    18  stm32f10x_tim.o(.text)
    TIM_OC1NPolarityConfig                   0x080126ef   Thumb Code    18  stm32f10x_tim.o(.text)
    TIM_OC2PolarityConfig                    0x08012701   Thumb Code    26  stm32f10x_tim.o(.text)
    TIM_OC2NPolarityConfig                   0x0801271b   Thumb Code    26  stm32f10x_tim.o(.text)
    TIM_OC3PolarityConfig                    0x08012735   Thumb Code    26  stm32f10x_tim.o(.text)
    TIM_OC3NPolarityConfig                   0x0801274f   Thumb Code    26  stm32f10x_tim.o(.text)
    TIM_OC4PolarityConfig                    0x08012769   Thumb Code    26  stm32f10x_tim.o(.text)
    TIM_CCxCmd                               0x08012783   Thumb Code    30  stm32f10x_tim.o(.text)
    TIM_CCxNCmd                              0x080127a1   Thumb Code    30  stm32f10x_tim.o(.text)
    TIM_SelectOCxM                           0x080127bf   Thumb Code    82  stm32f10x_tim.o(.text)
    TIM_UpdateDisableConfig                  0x08012811   Thumb Code    24  stm32f10x_tim.o(.text)
    TIM_UpdateRequestConfig                  0x08012829   Thumb Code    24  stm32f10x_tim.o(.text)
    TIM_SelectHallSensor                     0x08012841   Thumb Code    24  stm32f10x_tim.o(.text)
    TIM_SelectOnePulseMode                   0x08012859   Thumb Code    18  stm32f10x_tim.o(.text)
    TIM_SelectOutputTrigger                  0x0801286b   Thumb Code    18  stm32f10x_tim.o(.text)
    TIM_SelectSlaveMode                      0x0801287d   Thumb Code    18  stm32f10x_tim.o(.text)
    TIM_SelectMasterSlaveMode                0x0801288f   Thumb Code    18  stm32f10x_tim.o(.text)
    TIM_SetCounter                           0x080128a1   Thumb Code     4  stm32f10x_tim.o(.text)
    TIM_SetAutoreload                        0x080128a5   Thumb Code     4  stm32f10x_tim.o(.text)
    TIM_SetCompare1                          0x080128a9   Thumb Code     4  stm32f10x_tim.o(.text)
    TIM_SetCompare2                          0x080128ad   Thumb Code     4  stm32f10x_tim.o(.text)
    TIM_SetCompare3                          0x080128b1   Thumb Code     4  stm32f10x_tim.o(.text)
    TIM_SetCompare4                          0x080128b5   Thumb Code     6  stm32f10x_tim.o(.text)
    TIM_SetClockDivision                     0x080128bb   Thumb Code    18  stm32f10x_tim.o(.text)
    TIM_GetCapture1                          0x080128cd   Thumb Code     6  stm32f10x_tim.o(.text)
    TIM_GetCapture2                          0x080128d3   Thumb Code     6  stm32f10x_tim.o(.text)
    TIM_GetCapture3                          0x080128d9   Thumb Code     6  stm32f10x_tim.o(.text)
    TIM_GetCapture4                          0x080128df   Thumb Code     8  stm32f10x_tim.o(.text)
    TIM_GetCounter                           0x080128e7   Thumb Code     6  stm32f10x_tim.o(.text)
    TIM_GetPrescaler                         0x080128ed   Thumb Code     6  stm32f10x_tim.o(.text)
    TIM_GetFlagStatus                        0x080128f3   Thumb Code    18  stm32f10x_tim.o(.text)
    TIM_ClearFlag                            0x08012905   Thumb Code     6  stm32f10x_tim.o(.text)
    TIM_GetITStatus                          0x0801290b   Thumb Code    34  stm32f10x_tim.o(.text)
    TIM_ClearITPendingBit                    0x0801292d   Thumb Code     6  stm32f10x_tim.o(.text)
    USART_DeInit                             0x08012935   Thumb Code   134  stm32f10x_usart.o(.text)
    USART_Init                               0x080129bb   Thumb Code   210  stm32f10x_usart.o(.text)
    USART_StructInit                         0x08012a8d   Thumb Code    24  stm32f10x_usart.o(.text)
    USART_ClockInit                          0x08012aa5   Thumb Code    34  stm32f10x_usart.o(.text)
    USART_ClockStructInit                    0x08012ac7   Thumb Code    12  stm32f10x_usart.o(.text)
    USART_Cmd                                0x08012ad3   Thumb Code    24  stm32f10x_usart.o(.text)
    USART_ITConfig                           0x08012aeb   Thumb Code    74  stm32f10x_usart.o(.text)
    USART_DMACmd                             0x08012b35   Thumb Code    18  stm32f10x_usart.o(.text)
    USART_SetAddress                         0x08012b47   Thumb Code    18  stm32f10x_usart.o(.text)
    USART_WakeUpConfig                       0x08012b59   Thumb Code    18  stm32f10x_usart.o(.text)
    USART_ReceiverWakeUpCmd                  0x08012b6b   Thumb Code    24  stm32f10x_usart.o(.text)
    USART_LINBreakDetectLengthConfig         0x08012b83   Thumb Code    18  stm32f10x_usart.o(.text)
    USART_LINCmd                             0x08012b95   Thumb Code    24  stm32f10x_usart.o(.text)
    USART_SendData                           0x08012bad   Thumb Code     8  stm32f10x_usart.o(.text)
    USART_ReceiveData                        0x08012bb5   Thumb Code    10  stm32f10x_usart.o(.text)
    USART_SendBreak                          0x08012bbf   Thumb Code    10  stm32f10x_usart.o(.text)
    USART_SetGuardTime                       0x08012bc9   Thumb Code    16  stm32f10x_usart.o(.text)
    USART_SetPrescaler                       0x08012bd9   Thumb Code    16  stm32f10x_usart.o(.text)
    USART_SmartCardCmd                       0x08012be9   Thumb Code    24  stm32f10x_usart.o(.text)
    USART_SmartCardNACKCmd                   0x08012c01   Thumb Code    24  stm32f10x_usart.o(.text)
    USART_HalfDuplexCmd                      0x08012c19   Thumb Code    24  stm32f10x_usart.o(.text)
    USART_OverSampling8Cmd                   0x08012c31   Thumb Code    22  stm32f10x_usart.o(.text)
    USART_OneBitMethodCmd                    0x08012c47   Thumb Code    24  stm32f10x_usart.o(.text)
    USART_IrDAConfig                         0x08012c5f   Thumb Code    18  stm32f10x_usart.o(.text)
    USART_IrDACmd                            0x08012c71   Thumb Code    24  stm32f10x_usart.o(.text)
    USART_GetFlagStatus                      0x08012c89   Thumb Code    26  stm32f10x_usart.o(.text)
    USART_ClearFlag                          0x08012ca3   Thumb Code    18  stm32f10x_usart.o(.text)
    USART_GetITStatus                        0x08012cb5   Thumb Code    84  stm32f10x_usart.o(.text)
    USART_ClearITPendingBit                  0x08012d09   Thumb Code    52  stm32f10x_usart.o(.text)
    SPI_I2S_DeInit                           0x08012d3d   Thumb Code    76  stm32f10x_spi.o(.text)
    SPI_Init                                 0x08012d89   Thumb Code    60  stm32f10x_spi.o(.text)
    I2S_Init                                 0x08012dc5   Thumb Code   226  stm32f10x_spi.o(.text)
    SPI_StructInit                           0x08012ea7   Thumb Code    24  stm32f10x_spi.o(.text)
    I2S_StructInit                           0x08012ebf   Thumb Code    20  stm32f10x_spi.o(.text)
    SPI_Cmd                                  0x08012ed3   Thumb Code    24  stm32f10x_spi.o(.text)
    I2S_Cmd                                  0x08012eeb   Thumb Code    24  stm32f10x_spi.o(.text)
    SPI_I2S_ITConfig                         0x08012f03   Thumb Code    32  stm32f10x_spi.o(.text)
    SPI_I2S_DMACmd                           0x08012f23   Thumb Code    18  stm32f10x_spi.o(.text)
    SPI_I2S_SendData                         0x08012f35   Thumb Code     4  stm32f10x_spi.o(.text)
    SPI_I2S_ReceiveData                      0x08012f39   Thumb Code     6  stm32f10x_spi.o(.text)
    SPI_NSSInternalSoftwareConfig            0x08012f3f   Thumb Code    30  stm32f10x_spi.o(.text)
    SPI_SSOutputCmd                          0x08012f5d   Thumb Code    24  stm32f10x_spi.o(.text)
    SPI_DataSizeConfig                       0x08012f75   Thumb Code    18  stm32f10x_spi.o(.text)
    SPI_TransmitCRC                          0x08012f87   Thumb Code    10  stm32f10x_spi.o(.text)
    SPI_CalculateCRC                         0x08012f91   Thumb Code    24  stm32f10x_spi.o(.text)
    SPI_GetCRC                               0x08012fa9   Thumb Code    16  stm32f10x_spi.o(.text)
    SPI_GetCRCPolynomial                     0x08012fb9   Thumb Code     6  stm32f10x_spi.o(.text)
    SPI_BiDirectionalLineConfig              0x08012fbf   Thumb Code    28  stm32f10x_spi.o(.text)
    SPI_I2S_GetFlagStatus                    0x08012fdb   Thumb Code    18  stm32f10x_spi.o(.text)
    SPI_I2S_ClearFlag                        0x08012fed   Thumb Code     6  stm32f10x_spi.o(.text)
    SPI_I2S_GetITStatus                      0x08012ff3   Thumb Code    52  stm32f10x_spi.o(.text)
    SPI_I2S_ClearITPendingBit                0x08013027   Thumb Code    20  stm32f10x_spi.o(.text)
    FLASH_SetLatency                         0x08013049   Thumb Code    18  stm32f10x_flash.o(.text)
    FLASH_HalfCycleAccessCmd                 0x0801305b   Thumb Code    22  stm32f10x_flash.o(.text)
    FLASH_PrefetchBufferCmd                  0x08013071   Thumb Code    22  stm32f10x_flash.o(.text)
    FLASH_Unlock                             0x08013087   Thumb Code    12  stm32f10x_flash.o(.text)
    FLASH_UnlockBank1                        0x08013093   Thumb Code    12  stm32f10x_flash.o(.text)
    FLASH_Lock                               0x0801309f   Thumb Code    14  stm32f10x_flash.o(.text)
    FLASH_LockBank1                          0x080130ad   Thumb Code    14  stm32f10x_flash.o(.text)
    FLASH_GetBank1Status                     0x080130bb   Thumb Code    48  stm32f10x_flash.o(.text)
    FLASH_WaitForLastOperation               0x080130eb   Thumb Code    38  stm32f10x_flash.o(.text)
    FLASH_ErasePage                          0x08013111   Thumb Code    72  stm32f10x_flash.o(.text)
    FLASH_EraseAllPages                      0x08013159   Thumb Code    68  stm32f10x_flash.o(.text)
    FLASH_WaitForLastBank1Operation          0x0801319d   Thumb Code    38  stm32f10x_flash.o(.text)
    FLASH_EraseAllBank1Pages                 0x080131c3   Thumb Code    68  stm32f10x_flash.o(.text)
    FLASH_GetReadOutProtectionStatus         0x08013207   Thumb Code    20  stm32f10x_flash.o(.text)
    FLASH_EraseOptionBytes                   0x0801321b   Thumb Code   150  stm32f10x_flash.o(.text)
    FLASH_ProgramWord                        0x080132b1   Thumb Code   102  stm32f10x_flash.o(.text)
    FLASH_ProgramHalfWord                    0x08013317   Thumb Code    60  stm32f10x_flash.o(.text)
    FLASH_ProgramOptionByteData              0x08013353   Thumb Code    72  stm32f10x_flash.o(.text)
    FLASH_EnableWriteProtection              0x0801339b   Thumb Code   200  stm32f10x_flash.o(.text)
    FLASH_ReadOutProtection                  0x08013463   Thumb Code   156  stm32f10x_flash.o(.text)
    FLASH_UserOptionByteConfig               0x080134ff   Thumb Code    88  stm32f10x_flash.o(.text)
    FLASH_GetUserOptionByte                  0x08013557   Thumb Code     8  stm32f10x_flash.o(.text)
    FLASH_GetWriteProtectionOptionByte       0x0801355f   Thumb Code     6  stm32f10x_flash.o(.text)
    FLASH_GetPrefetchBufferStatus            0x08013565   Thumb Code    20  stm32f10x_flash.o(.text)
    FLASH_ITConfig                           0x08013579   Thumb Code    26  stm32f10x_flash.o(.text)
    FLASH_GetFlagStatus                      0x08013593   Thumb Code    42  stm32f10x_flash.o(.text)
    FLASH_ClearFlag                          0x080135bd   Thumb Code     6  stm32f10x_flash.o(.text)
    FLASH_GetStatus                          0x080135c3   Thumb Code    48  stm32f10x_flash.o(.text)
    BSP_CPU_ClkFreq                          0x08013605   Thumb Code    16  bsp.o(.text)
    CPU_TS_TmrInit                           0x08013615   Thumb Code    44  bsp.o(.text)
    CPU_TS_TmrRd                             0x08013641   Thumb Code     6  bsp.o(.text)
    CPU_TS32_to_uSec                         0x08013647   Thumb Code    54  bsp.o(.text)
    CPU_NameClr                              0x08013689   Thumb Code    42  cpu_core.o(.text)
    CPU_Init                                 0x080136c9   Thumb Code    12  cpu_core.o(.text)
    CPU_SW_Exception                         0x080136d5   Thumb Code     4  cpu_core.o(.text)
    CPU_NameGet                              0x080136d9   Thumb Code    70  cpu_core.o(.text)
    CPU_NameSet                              0x0801371f   Thumb Code    96  cpu_core.o(.text)
    CPU_TS_Get32                             0x0801377f   Thumb Code    12  cpu_core.o(.text)
    CPU_TS_Update                            0x0801378b   Thumb Code     2  cpu_core.o(.text)
    CPU_TS_TmrFreqGet                        0x0801378d   Thumb Code    30  cpu_core.o(.text)
    CPU_TS_TmrFreqSet                        0x080137ab   Thumb Code     6  cpu_core.o(.text)
    CPU_CntLeadZeros08                       0x080137b1   Thumb Code    18  cpu_core.o(.text)
    CPU_CntLeadZeros16                       0x080137c3   Thumb Code    18  cpu_core.o(.text)
    CPU_CntLeadZeros32                       0x080137d5   Thumb Code    18  cpu_core.o(.text)
    CPU_CntLeadZeros64                       0x080137e7   Thumb Code   192  cpu_core.o(.text)
    CPU_CntTrailZeros08                      0x080138a7   Thumb Code    22  cpu_core.o(.text)
    CPU_CntTrailZeros16                      0x080138bd   Thumb Code    22  cpu_core.o(.text)
    CPU_CntTrailZeros32                      0x080138d3   Thumb Code    22  cpu_core.o(.text)
    CPU_CntTrailZeros64                      0x080138e9   Thumb Code    62  cpu_core.o(.text)
    CPU_IntDis                               0x08013935   Thumb Code     0  cpu_a.o(.text)
    CPU_IntEn                                0x08013939   Thumb Code     0  cpu_a.o(.text)
    CPU_SR_Save                              0x0801393d   Thumb Code     0  cpu_a.o(.text)
    CPU_SR_Restore                           0x08013945   Thumb Code     0  cpu_a.o(.text)
    CPU_WaitForInt                           0x0801394b   Thumb Code     0  cpu_a.o(.text)
    CPU_WaitForExcept                        0x0801394f   Thumb Code     0  cpu_a.o(.text)
    CPU_CntLeadZeros                         0x08013953   Thumb Code     0  cpu_a.o(.text)
    CPU_CntTrailZeros                        0x08013959   Thumb Code     0  cpu_a.o(.text)
    CPU_RevBits                              0x08013963   Thumb Code     0  cpu_a.o(.text)
    ASCII_IsAlpha                            0x08013969   Thumb Code    48  lib_ascii.o(.text)
    ASCII_IsAlphaNum                         0x08013999   Thumb Code    76  lib_ascii.o(.text)
    ASCII_IsLower                            0x080139e5   Thumb Code    20  lib_ascii.o(.text)
    ASCII_IsUpper                            0x080139f9   Thumb Code    20  lib_ascii.o(.text)
    ASCII_IsDig                              0x08013a0d   Thumb Code    20  lib_ascii.o(.text)
    ASCII_IsDigOct                           0x08013a21   Thumb Code    20  lib_ascii.o(.text)
    ASCII_IsDigHex                           0x08013a35   Thumb Code    36  lib_ascii.o(.text)
    ASCII_IsBlank                            0x08013a59   Thumb Code    20  lib_ascii.o(.text)
    ASCII_IsSpace                            0x08013a6d   Thumb Code    36  lib_ascii.o(.text)
    ASCII_IsPrint                            0x08013a91   Thumb Code    20  lib_ascii.o(.text)
    ASCII_IsGraph                            0x08013aa5   Thumb Code    20  lib_ascii.o(.text)
    ASCII_IsPunct                            0x08013ab9   Thumb Code   134  lib_ascii.o(.text)
    ASCII_IsCtrl                             0x08013b3f   Thumb Code    26  lib_ascii.o(.text)
    ASCII_ToLower                            0x08013b59   Thumb Code    32  lib_ascii.o(.text)
    ASCII_ToUpper                            0x08013b79   Thumb Code    32  lib_ascii.o(.text)
    ASCII_Cmp                                0x08013b99   Thumb Code    38  lib_ascii.o(.text)
    Mem_Init                                 0x08013bc1   Thumb Code    54  lib_mem.o(.text)
    Mem_Set                                  0x08013bf7   Thumb Code    84  lib_mem.o(.text)
    Mem_Clr                                  0x08013c4b   Thumb Code    18  lib_mem.o(.text)
    Mem_Move                                 0x08013c5d   Thumb Code   186  lib_mem.o(.text)
    Mem_Cmp                                  0x08013d17   Thumb Code   192  lib_mem.o(.text)
    Mem_HeapAlloc                            0x08013e4f   Thumb Code   168  lib_mem.o(.text)
    Mem_SegGetSizeRem                        0x08013ef7   Thumb Code   108  lib_mem.o(.text)
    Mem_HeapGetSizeRem                       0x08013f63   Thumb Code    22  lib_mem.o(.text)
    Mem_PoolClr                              0x08013f79   Thumb Code    80  lib_mem.o(.text)
    Mem_PoolCreate                           0x08013fc9   Thumb Code   838  lib_mem.o(.text)
    Mem_PoolBlkGetNbrAvail                   0x0801430f   Thumb Code    52  lib_mem.o(.text)
    Mem_PoolBlkGet                           0x08014343   Thumb Code   126  lib_mem.o(.text)
    Mem_PoolBlkGetUsedAtIx                   0x080143c1   Thumb Code   140  lib_mem.o(.text)
    Mem_PoolBlkFree                          0x0801444d   Thumb Code   152  lib_mem.o(.text)
    Mem_PoolBlkIxGet                         0x080144e5   Thumb Code   162  lib_mem.o(.text)
    Str_Len_N                                0x08014589   Thumb Code    28  lib_str.o(.text)
    Str_Len                                  0x080145a5   Thumb Code    20  lib_str.o(.text)
    Str_Copy_N                               0x080145b9   Thumb Code    70  lib_str.o(.text)
    Str_Copy                                 0x080145ff   Thumb Code    24  lib_str.o(.text)
    Str_Cat_N                                0x08014617   Thumb Code    90  lib_str.o(.text)
    Str_Cat                                  0x08014671   Thumb Code    24  lib_str.o(.text)
    Str_Cmp_N                                0x08014689   Thumb Code   156  lib_str.o(.text)
    Str_Cmp                                  0x08014725   Thumb Code    24  lib_str.o(.text)
    Str_CmpIgnoreCase_N                      0x0801473d   Thumb Code   264  lib_str.o(.text)
    Str_CmpIgnoreCase                        0x08014845   Thumb Code    24  lib_str.o(.text)
    Str_Char_N                               0x0801485d   Thumb Code    74  lib_str.o(.text)
    Str_Char                                 0x080148a7   Thumb Code    24  lib_str.o(.text)
    Str_Char_Last_N                          0x080148bf   Thumb Code    76  lib_str.o(.text)
    Str_Char_Last                            0x0801490b   Thumb Code    24  lib_str.o(.text)
    Str_Char_Replace_N                       0x08014923   Thumb Code    52  lib_str.o(.text)
    Str_Char_Replace                         0x08014957   Thumb Code    28  lib_str.o(.text)
    Str_Str_N                                0x08014973   Thumb Code   182  lib_str.o(.text)
    Str_Str                                  0x08014a29   Thumb Code    24  lib_str.o(.text)
    Str_FmtNbr_Int32U                        0x08014c1d   Thumb Code    46  lib_str.o(.text)
    Str_FmtNbr_Int32S                        0x08014c4b   Thumb Code    62  lib_str.o(.text)
    Str_ParseNbr_Int32U                      0x08014e47   Thumb Code    30  lib_str.o(.text)
    Str_ParseNbr_Int32S                      0x08014e65   Thumb Code    74  lib_str.o(.text)
    Mem_Copy                                 0x08014eb5   Thumb Code     0  lib_mem_a.o(.text)
    OSCfg_Init                               0x080150d5   Thumb Code    86  os_cfg_app.o(.text)
    OS_IdleTask                              0x080151d1   Thumb Code    60  os_core.o(.text)
    OS_IdleTaskInit                          0x0801520d   Thumb Code    68  os_core.o(.text)
    OS_RdyListInit                           0x08015251   Thumb Code    32  os_core.o(.text)
    OSInit                                   0x08015271   Thumb Code   282  os_core.o(.text)
    OSIntEnter                               0x0801538b   Thumb Code    34  os_core.o(.text)
    OSIntExit                                0x080153ad   Thumb Code   188  os_core.o(.text)
    OSSched                                  0x08015469   Thumb Code   130  os_core.o(.text)
    OS_SchedLockTimeMeasStart                0x080154eb   Thumb Code    20  os_core.o(.text)
    OSSchedLock                              0x080154ff   Thumb Code   104  os_core.o(.text)
    OS_SchedLockTimeMeasStop                 0x08015567   Thumb Code    44  os_core.o(.text)
    OSSchedUnlock                            0x08015593   Thumb Code   274  os_core.o(.text)
    OSStart                                  0x080156a5   Thumb Code    78  os_core.o(.text)
    OSVersion                                0x080156f3   Thumb Code    12  os_core.o(.text)
    OS_PendDbgNameAdd                        0x080156ff   Thumb Code    66  os_core.o(.text)
    OS_PendListInsertPrio                    0x08015741   Thumb Code   102  os_core.o(.text)
    OS_PendDataInit                          0x080157a7   Thumb Code    38  os_core.o(.text)
    OS_RdyListRemove                         0x080157cd   Thumb Code    86  os_core.o(.text)
    OS_TaskBlock                             0x08015823   Thumb Code    56  os_core.o(.text)
    OS_Pend                                  0x0801585b   Thumb Code    98  os_core.o(.text)
    OS_PendListRemove1                       0x080158bd   Thumb Code    66  os_core.o(.text)
    OS_PendListRemove                        0x080158ff   Thumb Code    48  os_core.o(.text)
    OS_PendAbort1                            0x0801592f   Thumb Code    36  os_core.o(.text)
    OS_RdyListInsertHead                     0x08015953   Thumb Code    58  os_core.o(.text)
    OS_RdyListInsertTail                     0x0801598d   Thumb Code    56  os_core.o(.text)
    OS_RdyListInsert                         0x080159c5   Thumb Code    40  os_core.o(.text)
    OS_TaskRdy                               0x080159ed   Thumb Code    28  os_core.o(.text)
    OS_PendAbort                             0x08015a09   Thumb Code   222  os_core.o(.text)
    OS_PendDbgNameRemove                     0x08015ae7   Thumb Code    34  os_core.o(.text)
    OS_PendListChangePrio                    0x08015b09   Thumb Code    70  os_core.o(.text)
    OS_PendListInit                          0x08015b4f   Thumb Code    10  os_core.o(.text)
    OS_PendListInsertHead                    0x08015b59   Thumb Code    32  os_core.o(.text)
    OS_PendObjDel1                           0x08015b79   Thumb Code    36  os_core.o(.text)
    OS_PendObjDel                            0x08015b9d   Thumb Code   162  os_core.o(.text)
    OS_Post1                                 0x08015c3f   Thumb Code    42  os_core.o(.text)
    OS_Post                                  0x08015c69   Thumb Code   192  os_core.o(.text)
    OS_RdyListMoveHeadToTail                 0x08015d29   Thumb Code    68  os_core.o(.text)
    OS_Sched0                                0x08015d6d   Thumb Code    68  os_core.o(.text)
    OS_Dbg_Init                              0x08015dc1   Thumb Code   146  os_dbg.o(.text)
    OS_FlagDbgListAdd                        0x08015f71   Thumb Code    38  os_flag.o(.text)
    OSFlagCreate                             0x08015f97   Thumb Code   172  os_flag.o(.text)
    OS_FlagClr                               0x08016043   Thumb Code    28  os_flag.o(.text)
    OS_FlagDbgListRemove                     0x0801605f   Thumb Code    44  os_flag.o(.text)
    OSFlagDel                                0x0801608b   Thumb Code   594  os_flag.o(.text)
    OS_FlagBlock                             0x080162dd   Thumb Code    58  os_flag.o(.text)
    OSFlagPend                               0x08016317   Thumb Code  1488  os_flag.o(.text)
    OSFlagPendAbort                          0x080168e7   Thumb Code   292  os_flag.o(.text)
    OSFlagPendGetFlagsRdy                    0x08016a0b   Thumb Code    68  os_flag.o(.text)
    OS_FlagTaskRdy                           0x08016a4f   Thumb Code    86  os_flag.o(.text)
    OS_FlagPost                              0x08016aa5   Thumb Code   570  os_flag.o(.text)
    OSFlagPost                               0x08016cdf   Thumb Code   146  os_flag.o(.text)
    OS_FlagInit                              0x08016d71   Thumb Code    14  os_flag.o(.text)
    OS_IntQPost                              0x08016d99   Thumb Code   216  os_int.o(.text)
    OS_IntQRePost                            0x08016e71   Thumb Code   342  os_int.o(.text)
    OS_IntQTask                              0x08016fc7   Thumb Code   162  os_int.o(.text)
    OS_IntQTaskInit                          0x08017069   Thumb Code   208  os_int.o(.text)
    OS_MemDbgListAdd                         0x080171c9   Thumb Code    34  os_mem.o(.text)
    OSMemCreate                              0x080171eb   Thumb Code   288  os_mem.o(.text)
    OSMemGet                                 0x0801730b   Thumb Code   100  os_mem.o(.text)
    OSMemPut                                 0x0801736f   Thumb Code   112  os_mem.o(.text)
    OS_MemInit                               0x080173df   Thumb Code    14  os_mem.o(.text)
    OS_MsgPoolCreate                         0x08017401   Thumb Code    54  os_msg.o(.text)
    OS_MsgPoolInit                           0x08017437   Thumb Code    70  os_msg.o(.text)
    OS_MsgQFreeAll                           0x0801747d   Thumb Code    62  os_msg.o(.text)
    OS_MsgQInit                              0x080174bb   Thumb Code    14  os_msg.o(.text)
    OS_MsgQGet                               0x080174c9   Thumb Code    98  os_msg.o(.text)
    OS_MsgQPut                               0x0801752b   Thumb Code   246  os_msg.o(.text)
    OS_MutexDbgListAdd                       0x0801762d   Thumb Code    38  os_mutex.o(.text)
    OSMutexCreate                            0x08017653   Thumb Code   178  os_mutex.o(.text)
    OS_MutexClr                              0x08017705   Thumb Code    38  os_mutex.o(.text)
    OS_MutexDbgListRemove                    0x0801772b   Thumb Code    44  os_mutex.o(.text)
    OSMutexDel                               0x08017757   Thumb Code   842  os_mutex.o(.text)
    OSMutexPend                              0x08017aa1   Thumb Code   706  os_mutex.o(.text)
    OSMutexPendAbort                         0x08017d63   Thumb Code   314  os_mutex.o(.text)
    OSMutexPost                              0x08017e9d   Thumb Code   564  os_mutex.o(.text)
    OS_MutexInit                             0x080180d1   Thumb Code    14  os_mutex.o(.text)
    OS_PrioInit                              0x08018101   Thumb Code    20  os_prio.o(.text)
    OS_PrioGetHighest                        0x08018115   Thumb Code    36  os_prio.o(.text)
    OS_PrioInsert                            0x08018139   Thumb Code    32  os_prio.o(.text)
    OS_PrioRemove                            0x08018159   Thumb Code    32  os_prio.o(.text)
    OS_QDbgListAdd                           0x0801817d   Thumb Code    38  os_q.o(.text)
    OSQCreate                                0x080181a3   Thumb Code   186  os_q.o(.text)
    OS_QClr                                  0x0801825d   Thumb Code    40  os_q.o(.text)
    OS_QDbgListRemove                        0x08018285   Thumb Code    44  os_q.o(.text)
    OSQDel                                   0x080182b1   Thumb Code   362  os_q.o(.text)
    OSQFlush                                 0x0801841b   Thumb Code   210  os_q.o(.text)
    OSQPend                                  0x080184ed   Thumb Code   538  os_q.o(.text)
    OSQPendAbort                             0x08018707   Thumb Code   292  os_q.o(.text)
    OS_QPost                                 0x0801882b   Thumb Code   324  os_q.o(.text)
    OSQPost                                  0x0801896f   Thumb Code   198  os_q.o(.text)
    OS_QInit                                 0x08018a35   Thumb Code    14  os_q.o(.text)
    OS_SemDbgListAdd                         0x08018a55   Thumb Code    38  os_sem.o(.text)
    OSSemCreate                              0x08018a7b   Thumb Code   172  os_sem.o(.text)
    OS_SemClr                                0x08018b27   Thumb Code    28  os_sem.o(.text)
    OS_SemDbgListRemove                      0x08018b43   Thumb Code    44  os_sem.o(.text)
    OSSemDel                                 0x08018b6f   Thumb Code   362  os_sem.o(.text)
    OSSemPend                                0x08018cd9   Thumb Code   504  os_sem.o(.text)
    OSSemPendAbort                           0x08018ed1   Thumb Code   292  os_sem.o(.text)
    OS_SemPost                               0x08018ff5   Thumb Code   350  os_sem.o(.text)
    OSSemPost                                0x08019153   Thumb Code   144  os_sem.o(.text)
    OSSemSet                                 0x080191e3   Thumb Code   138  os_sem.o(.text)
    OS_SemInit                               0x0801926d   Thumb Code    14  os_sem.o(.text)
    OSStatReset                              0x08019285   Thumb Code   270  os_stat.o(.text)
    OSStatTaskCPUUsageInit                   0x08019393   Thumb Code   212  os_stat.o(.text)
    OS_StatTask                              0x08019467   Thumb Code   888  os_stat.o(.text)
    OS_StatTaskInit                          0x080197df   Thumb Code   138  os_stat.o(.text)
    OSTaskChangePrio                         0x080198bd   Thumb Code   416  os_task.o(.text)
    OS_TaskDbgListAdd                        0x08019a5d   Thumb Code    42  os_task.o(.text)
    OS_TaskInitTCB                           0x08019a87   Thumb Code   186  os_task.o(.text)
    OSTaskCreate                             0x08019b41   Thumb Code   596  os_task.o(.text)
    OS_TaskDbgListRemove                     0x08019d95   Thumb Code    64  os_task.o(.text)
    OSTaskDel                                0x08019dd5   Thumb Code   424  os_task.o(.text)
    OSTaskQFlush                             0x08019f7d   Thumb Code   214  os_task.o(.text)
    OSTaskQPend                              0x0801a053   Thumb Code   554  os_task.o(.text)
    OSTaskQPendAbort                         0x0801a27d   Thumb Code   242  os_task.o(.text)
    OS_TaskQPost                             0x0801a36f   Thumb Code   526  os_task.o(.text)
    OSTaskQPost                              0x0801a57d   Thumb Code   114  os_task.o(.text)
    OSTaskRegGet                             0x0801a5ef   Thumb Code    78  os_task.o(.text)
    OSTaskRegGetID                           0x0801a63d   Thumb Code    84  os_task.o(.text)
    OSTaskRegSet                             0x0801a691   Thumb Code    78  os_task.o(.text)
    OS_TaskResume                            0x0801a6df   Thumb Code   314  os_task.o(.text)
    OSTaskResume                             0x0801a819   Thumb Code   112  os_task.o(.text)
    OSTaskSemPend                            0x0801a889   Thumb Code   550  os_task.o(.text)
    OSTaskSemPendAbort                       0x0801aaaf   Thumb Code   270  os_task.o(.text)
    OS_TaskSemPost                           0x0801abbd   Thumb Code  1224  os_task.o(.text)
    OSTaskSemPost                            0x0801b085   Thumb Code    98  os_task.o(.text)
    OSTaskSemSet                             0x0801b0e7   Thumb Code    80  os_task.o(.text)
    OSTaskStkChk                             0x0801b137   Thumb Code   224  os_task.o(.text)
    OS_TaskSuspend                           0x0801b217   Thumb Code   328  os_task.o(.text)
    OSTaskSuspend                            0x0801b35f   Thumb Code    78  os_task.o(.text)
    OS_TaskInit                              0x0801b3ad   Thumb Code    18  os_task.o(.text)
    OS_TaskReturn                            0x0801b3bf   Thumb Code    20  os_task.o(.text)
    OS_TickListRemove                        0x0801b3f9   Thumb Code    56  os_tick.o(.text)
    OS_TickListUpdate                        0x0801b431   Thumb Code   480  os_tick.o(.text)
    OS_TickTask                              0x0801b611   Thumb Code    38  os_tick.o(.text)
    OS_TickListInit                          0x0801b637   Thumb Code    32  os_tick.o(.text)
    OS_TickTaskInit                          0x0801b657   Thumb Code   130  os_tick.o(.text)
    OS_TickListInsert                        0x0801b6d9   Thumb Code   502  os_tick.o(.text)
    OS_TickListResetPeak                     0x0801b8cf   Thumb Code    28  os_tick.o(.text)
    OSTimeDly                                0x0801b8f5   Thumb Code   266  os_time.o(.text)
    OSTimeDlyHMSM                            0x0801b9ff   Thumb Code   480  os_time.o(.text)
    OSTimeDlyResume                          0x0801bbdf   Thumb Code   466  os_time.o(.text)
    OSTimeGet                                0x0801bdb1   Thumb Code    46  os_time.o(.text)
    OSTimeSet                                0x0801bddf   Thumb Code    46  os_time.o(.text)
    OSTimeTick                               0x0801be0d   Thumb Code    54  os_time.o(.text)
    OS_TmrDbgListAdd                         0x0801be59   Thumb Code    34  os_tmr.o(.text)
    OSTmrCreate                              0x0801be7b   Thumb Code   248  os_tmr.o(.text)
    OS_TmrClr                                0x0801bf73   Thumb Code    36  os_tmr.o(.text)
    OS_TmrUnlink                             0x0801bf97   Thumb Code    72  os_tmr.o(.text)
    OS_TmrDbgListRemove                      0x0801bfdf   Thumb Code    44  os_tmr.o(.text)
    OSTmrDel                                 0x0801c00b   Thumb Code   176  os_tmr.o(.text)
    OSTmrRemainGet                           0x0801c0bb   Thumb Code   184  os_tmr.o(.text)
    OS_TmrLink                               0x0801c173   Thumb Code   196  os_tmr.o(.text)
    OSTmrStart                               0x0801c237   Thumb Code   210  os_tmr.o(.text)
    OSTmrStateGet                            0x0801c309   Thumb Code   134  os_tmr.o(.text)
    OSTmrStop                                0x0801c38f   Thumb Code   232  os_tmr.o(.text)
    OS_TmrTask                               0x0801c477   Thumb Code   176  os_tmr.o(.text)
    OS_TmrInit                               0x0801c527   Thumb Code   208  os_tmr.o(.text)
    OS_TmrResetPeak                          0x0801c5f7   Thumb Code    28  os_tmr.o(.text)
    OSIdleTaskHook                           0x0801c671   Thumb Code    16  os_cpu_c.o(.text)
    OSInitHook                               0x0801c681   Thumb Code    28  os_cpu_c.o(.text)
    OSStatTaskHook                           0x0801c69d   Thumb Code    16  os_cpu_c.o(.text)
    OSTaskCreateHook                         0x0801c6ad   Thumb Code    20  os_cpu_c.o(.text)
    OSTaskDelHook                            0x0801c6c1   Thumb Code    20  os_cpu_c.o(.text)
    OSTaskReturnHook                         0x0801c6d5   Thumb Code    20  os_cpu_c.o(.text)
    OSTaskStkInit                            0x0801c6e9   Thumb Code   192  os_cpu_c.o(.text)
    OSTaskSwHook                             0x0801c7a9   Thumb Code   120  os_cpu_c.o(.text)
    OSTimeTickHook                           0x0801c821   Thumb Code    16  os_cpu_c.o(.text)
    OS_CPU_SysTickHandler                    0x0801c831   Thumb Code    52  os_cpu_c.o(.text)
    OS_CPU_SysTickInit                       0x0801c865   Thumb Code    44  os_cpu_c.o(.text)
    mymemcpy                                 0x0801c8d1   Thumb Code    26  malloc.o(.text)
    mymemset                                 0x0801c8eb   Thumb Code    20  malloc.o(.text)
    my_mem_init                              0x0801c8ff   Thumb Code    54  malloc.o(.text)
    my_mem_perused                           0x0801c935   Thumb Code    54  malloc.o(.text)
    my_mem_malloc                            0x0801c96b   Thumb Code   154  malloc.o(.text)
    my_mem_free                              0x0801ca05   Thumb Code    94  malloc.o(.text)
    myfree                                   0x0801ca63   Thumb Code    32  malloc.o(.text)
    mymalloc                                 0x0801ca83   Thumb Code    36  malloc.o(.text)
    myrealloc                                0x0801caa7   Thumb Code    68  malloc.o(.text)
    rbCreate                                 0x0801cafd   Thumb Code    34  looplist.o(.text)
    rbDelete                                 0x0801cb1f   Thumb Code    28  looplist.o(.text)
    rbCapacity                               0x0801cb3b   Thumb Code    22  looplist.o(.text)
    rbCanRead                                0x0801cb51   Thumb Code    62  looplist.o(.text)
    rbCanWrite                               0x0801cb8f   Thumb Code    36  looplist.o(.text)
    rbRead                                   0x0801cbb3   Thumb Code   176  looplist.o(.text)
    rbWrite                                  0x0801cc63   Thumb Code   178  looplist.o(.text)
    PutData                                  0x0801cd15   Thumb Code    58  looplist.o(.text)
    tpm_sha1_init                            0x0801e373   Thumb Code    32  sha1.o(.text)
    tpm_sha1_update                          0x0801e393   Thumb Code   126  sha1.o(.text)
    tpm_sha1_final                           0x0801e411   Thumb Code   204  sha1.o(.text)
    sha1                                     0x0801e4dd   Thumb Code    38  sha1.o(.text)
    hex2String                               0x0801e503   Thumb Code    62  sha1.o(.text)
    printsha1                                0x0801e541   Thumb Code    30  sha1.o(.text)
    STMFLASH_ReadHalfWord                    0x0801e581   Thumb Code     6  stmflash.o(.text)
    STMFLASH_Write_NoCheck                   0x0801e587   Thumb Code    38  stmflash.o(.text)
    STMFLASH_Read                            0x0801e5ad   Thumb Code    34  stmflash.o(.text)
    STMFLASH_Write                           0x0801e5cf   Thumb Code   222  stmflash.o(.text)
    Test_Write                               0x0801e6ad   Thumb Code    16  stmflash.o(.text)
    STMFLASH_Erase                           0x0801e6bd   Thumb Code   168  stmflash.o(.text)
    iap_load_app                             0x0801e76d   Thumb Code    34  iap.o(.text)
    IAP_JumpExec                             0x0801e78f   Thumb Code     8  iap.o(.text)
    IAP_RecvFile                             0x0801e797   Thumb Code   268  iap.o(.text)
    __use_no_semihosting                     0x0801e929   Thumb Code     2  use_no_semi_2.o(.text)
    __aeabi_uldivmod                         0x0801e92b   Thumb Code     0  lludivv7m.o(.text)
    _ll_udiv                                 0x0801e92b   Thumb Code   238  lludivv7m.o(.text)
    __c89vsprintf                            0x0801ea19   Thumb Code    32  c89vsprintf.o(.text)
    __2printf                                0x0801ea3d   Thumb Code    20  __2printf.o(.text)
    _printf_pre_padding                      0x0801ea55   Thumb Code    44  _printf_pad.o(.text)
    _printf_post_padding                     0x0801ea81   Thumb Code    34  _printf_pad.o(.text)
    _printf_longlong_hex                     0x0801eaa5   Thumb Code    86  _printf_hex_int_ll_ptr.o(.text)
    _printf_int_hex                          0x0801eafb   Thumb Code    28  _printf_hex_int_ll_ptr.o(.text)
    _printf_ll_hex                           0x0801eb17   Thumb Code    12  _printf_hex_int_ll_ptr.o(.text)
    _printf_hex_ptr                          0x0801eb23   Thumb Code    18  _printf_hex_int_ll_ptr.o(.text)
    __printf                                 0x0801eb39   Thumb Code   388  __printf_flags_ss_wp.o(.text)
    strlen                                   0x0801ecc1   Thumb Code    62  strlen.o(.text)
    __aeabi_memcpy                           0x0801ecff   Thumb Code     0  rt_memcpy_v6.o(.text)
    __rt_memcpy                              0x0801ecff   Thumb Code   138  rt_memcpy_v6.o(.text)
    _memcpy_lastbytes                        0x0801ed65   Thumb Code     0  rt_memcpy_v6.o(.text)
    __aeabi_memclr4                          0x0801ed89   Thumb Code     0  rt_memclr_w.o(.text)
    __aeabi_memclr8                          0x0801ed89   Thumb Code     0  rt_memclr_w.o(.text)
    __rt_memclr_w                            0x0801ed89   Thumb Code    78  rt_memclr_w.o(.text)
    _memset_w                                0x0801ed8d   Thumb Code     0  rt_memclr_w.o(.text)
    __use_two_region_memory                  0x0801edd7   Thumb Code     2  heapauxi.o(.text)
    __rt_heap_escrow$2region                 0x0801edd9   Thumb Code     2  heapauxi.o(.text)
    __rt_heap_expand$2region                 0x0801eddb   Thumb Code     2  heapauxi.o(.text)
    __I$use$semihosting                      0x0801eddd   Thumb Code     0  use_no_semi.o(.text)
    __use_no_semihosting_swi                 0x0801eddd   Thumb Code     2  use_no_semi.o(.text)
    _printf_truncate_signed                  0x0801eddf   Thumb Code    18  _printf_truncate.o(.text)
    _printf_truncate_unsigned                0x0801edf1   Thumb Code    18  _printf_truncate.o(.text)
    _printf_str                              0x0801ee03   Thumb Code    82  _printf_str.o(.text)
    _printf_int_common                       0x0801ee55   Thumb Code   178  _printf_intcommon.o(.text)
    _printf_int_dec                          0x0801ef09   Thumb Code   100  _printf_dec.o(.text)
    _printf_charcount                        0x0801ef7d   Thumb Code    40  _printf_charcount.o(.text)
    _printf_char_common                      0x0801efaf   Thumb Code    32  _printf_char_common.o(.text)
    _sputc                                   0x0801efd5   Thumb Code    10  _sputc.o(.text)
    _printf_char_file                        0x0801efe1   Thumb Code    32  _printf_char_file.o(.text)
    _printf_wctomb                           0x0801f005   Thumb Code   182  _printf_wctomb.o(.text)
    _printf_longlong_dec                     0x0801f0c1   Thumb Code   104  _printf_longlong_dec.o(.text)
    _printf_longlong_oct                     0x0801f139   Thumb Code    68  _printf_oct_int_ll.o(.text)
    _printf_int_oct                          0x0801f17d   Thumb Code    24  _printf_oct_int_ll.o(.text)
    _printf_ll_oct                           0x0801f195   Thumb Code    12  _printf_oct_int_ll.o(.text)
    __aeabi_memcpy4                          0x0801f1a9   Thumb Code     0  rt_memcpy_w.o(.text)
    __aeabi_memcpy8                          0x0801f1a9   Thumb Code     0  rt_memcpy_w.o(.text)
    __rt_memcpy_w                            0x0801f1a9   Thumb Code   100  rt_memcpy_w.o(.text)
    _memcpy_lastbytes_aligned                0x0801f1f1   Thumb Code     0  rt_memcpy_w.o(.text)
    _ll_udiv10                               0x0801f20d   Thumb Code   138  lludiv10.o(.text)
    __lib_sel_fp_printf                      0x0801f297   Thumb Code     2  _printf_fp_dec.o(.text)
    _printf_fp_dec_real                      0x0801f445   Thumb Code   616  _printf_fp_dec.o(.text)
    _printf_cs_common                        0x0801f6ad   Thumb Code    20  _printf_char.o(.text)
    _printf_char                             0x0801f6c1   Thumb Code    16  _printf_char.o(.text)
    _printf_string                           0x0801f6d1   Thumb Code     8  _printf_char.o(.text)
    _printf_lcs_common                       0x0801f6d9   Thumb Code    20  _printf_wchar.o(.text)
    _printf_wchar                            0x0801f6ed   Thumb Code    16  _printf_wchar.o(.text)
    _printf_wstring                          0x0801f6fd   Thumb Code     8  _printf_wchar.o(.text)
    ferror                                   0x0801f705   Thumb Code     8  ferror.o(.text)
    _wcrtomb                                 0x0801f70d   Thumb Code    64  _wcrtomb.o(.text)
    __user_setup_stackheap                   0x0801f74d   Thumb Code    74  sys_stackheap_outer.o(.text)
    __rt_ctype_table                         0x0801f799   Thumb Code    16  rt_ctype_table.o(.text)
    __rt_locale                              0x0801f7a9   Thumb Code     8  rt_locale_intlibspace.o(.text)
    _printf_fp_infnan                        0x0801f7b1   Thumb Code   112  _printf_fp_infnan.o(.text)
    _btod_etento                             0x0801f831   Thumb Code   212  bigflt0.o(.text)
    exit                                     0x0801f909   Thumb Code    12  exit.o(.text)
    __user_libspace                          0x0801f915   Thumb Code     8  libspace.o(.text)
    __user_perproc_libspace                  0x0801f915   Thumb Code     0  libspace.o(.text)
    __user_perthread_libspace                0x0801f915   Thumb Code     0  libspace.o(.text)
    strcmp                                   0x0801f91d   Thumb Code   128  strcmpv7m.o(.text)
    _btod_d2e                                0x0801f99d   Thumb Code    62  btod.o(CL$$btod_d2e)
    _d2e_denorm_low                          0x0801f9db   Thumb Code    70  btod.o(CL$$btod_d2e_denorm_low)
    _d2e_norm_op1                            0x0801fa21   Thumb Code    96  btod.o(CL$$btod_d2e_norm_op1)
    __btod_div_common                        0x0801fa81   Thumb Code   696  btod.o(CL$$btod_div_common)
    _e2e                                     0x0801fdb9   Thumb Code   198  btod.o(CL$$btod_e2e)
    _btod_ediv                               0x0801fe7f   Thumb Code    40  btod.o(CL$$btod_ediv)
    _btod_emul                               0x0801fea7   Thumb Code    40  btod.o(CL$$btod_emul)
    __btod_mult_common                       0x0801fecf   Thumb Code   580  btod.o(CL$$btod_mult_common)
    OSStartHighRdy                           0x08020115   Thumb Code     0  os_cpu_a.o(CODE)
    OSCtxSw                                  0x08020137   Thumb Code     0  os_cpu_a.o(CODE)
    OSIntCtxSw                               0x08020141   Thumb Code     0  os_cpu_a.o(CODE)
    PendSV_Handler                           0x0802014b   Thumb Code     0  os_cpu_a.o(CODE)
    __ARM_fpclassify                         0x080201ad   Thumb Code    40  fpclassify.o(i.__ARM_fpclassify)
    _is_digit                                0x080201d5   Thumb Code    14  __printf_wp.o(i._is_digit)
    _get_lc_numeric                          0x080201e5   Thumb Code    44  lc_numeric_c.o(locale$$code)
    _get_lc_ctype                            0x08020211   Thumb Code    44  lc_ctype_c.o(locale$$code)
    _printf_fp_dec                           0x0802023d   Thumb Code     4  printf1.o(x$fpl$printf1)
    __I$use$fp                               0x08020240   Number         0  usenofp.o(x$fpl$usenofp)
    CPU_EndiannessTest                       0x08020340   Data           4  cpu_core.o(.constdata)
    OSCfg_IdleTaskStkBasePtr                 0x080203d8   Data           4  os_cfg_app.o(.constdata)
    OSCfg_IdleTaskStkLimit                   0x080203dc   Data           4  os_cfg_app.o(.constdata)
    OSCfg_IdleTaskStkSize                    0x080203e0   Data           4  os_cfg_app.o(.constdata)
    OSCfg_IdleTaskStkSizeRAM                 0x080203e4   Data           4  os_cfg_app.o(.constdata)
    OSCfg_IntQBasePtr                        0x080203e8   Data           4  os_cfg_app.o(.constdata)
    OSCfg_IntQSize                           0x080203ec   Data           2  os_cfg_app.o(.constdata)
    OSCfg_IntQSizeRAM                        0x080203f0   Data           4  os_cfg_app.o(.constdata)
    OSCfg_IntQTaskStkBasePtr                 0x080203f4   Data           4  os_cfg_app.o(.constdata)
    OSCfg_IntQTaskStkLimit                   0x080203f8   Data           4  os_cfg_app.o(.constdata)
    OSCfg_IntQTaskStkSize                    0x080203fc   Data           4  os_cfg_app.o(.constdata)
    OSCfg_IntQTaskStkSizeRAM                 0x08020400   Data           4  os_cfg_app.o(.constdata)
    OSCfg_ISRStkBasePtr                      0x08020404   Data           4  os_cfg_app.o(.constdata)
    OSCfg_ISRStkSize                         0x08020408   Data           4  os_cfg_app.o(.constdata)
    OSCfg_ISRStkSizeRAM                      0x0802040c   Data           4  os_cfg_app.o(.constdata)
    OSCfg_MsgPoolSize                        0x08020410   Data           2  os_cfg_app.o(.constdata)
    OSCfg_MsgPoolSizeRAM                     0x08020414   Data           4  os_cfg_app.o(.constdata)
    OSCfg_MsgPoolBasePtr                     0x08020418   Data           4  os_cfg_app.o(.constdata)
    OSCfg_StatTaskPrio                       0x0802041c   Data           1  os_cfg_app.o(.constdata)
    OSCfg_StatTaskRate_Hz                    0x08020420   Data           4  os_cfg_app.o(.constdata)
    OSCfg_StatTaskStkBasePtr                 0x08020424   Data           4  os_cfg_app.o(.constdata)
    OSCfg_StatTaskStkLimit                   0x08020428   Data           4  os_cfg_app.o(.constdata)
    OSCfg_StatTaskStkSize                    0x0802042c   Data           4  os_cfg_app.o(.constdata)
    OSCfg_StatTaskStkSizeRAM                 0x08020430   Data           4  os_cfg_app.o(.constdata)
    OSCfg_StkSizeMin                         0x08020434   Data           4  os_cfg_app.o(.constdata)
    OSCfg_TickRate_Hz                        0x08020438   Data           4  os_cfg_app.o(.constdata)
    OSCfg_TickTaskPrio                       0x0802043c   Data           1  os_cfg_app.o(.constdata)
    OSCfg_TickTaskStkBasePtr                 0x08020440   Data           4  os_cfg_app.o(.constdata)
    OSCfg_TickTaskStkLimit                   0x08020444   Data           4  os_cfg_app.o(.constdata)
    OSCfg_TickTaskStkSize                    0x08020448   Data           4  os_cfg_app.o(.constdata)
    OSCfg_TickTaskStkSizeRAM                 0x0802044c   Data           4  os_cfg_app.o(.constdata)
    OSCfg_TickWheelSize                      0x08020450   Data           2  os_cfg_app.o(.constdata)
    OSCfg_TickWheelSizeRAM                   0x08020454   Data           4  os_cfg_app.o(.constdata)
    OSCfg_TmrTaskPrio                        0x08020458   Data           1  os_cfg_app.o(.constdata)
    OSCfg_TmrTaskRate_Hz                     0x0802045c   Data           4  os_cfg_app.o(.constdata)
    OSCfg_TmrTaskStkBasePtr                  0x08020460   Data           4  os_cfg_app.o(.constdata)
    OSCfg_TmrTaskStkLimit                    0x08020464   Data           4  os_cfg_app.o(.constdata)
    OSCfg_TmrTaskStkSize                     0x08020468   Data           4  os_cfg_app.o(.constdata)
    OSCfg_TmrTaskStkSizeRAM                  0x0802046c   Data           4  os_cfg_app.o(.constdata)
    OSCfg_TmrWheelSize                       0x08020470   Data           2  os_cfg_app.o(.constdata)
    OSCfg_TmrWheelSizeRAM                    0x08020474   Data           4  os_cfg_app.o(.constdata)
    OSCfg_DataSizeRAM                        0x08020478   Data           4  os_cfg_app.o(.constdata)
    OSDbg_DbgEn                              0x0802047c   Data           2  os_dbg.o(.constdata)
    OSDbg_ArgChkEn                           0x0802047e   Data           1  os_dbg.o(.constdata)
    OSDbg_AppHooksEn                         0x0802047f   Data           1  os_dbg.o(.constdata)
    OSDbg_EndiannessTest                     0x08020480   Data           4  os_dbg.o(.constdata)
    OSDbg_CalledFromISRChkEn                 0x08020484   Data           1  os_dbg.o(.constdata)
    OSDbg_FlagEn                             0x08020485   Data           1  os_dbg.o(.constdata)
    OSDbg_FlagGrp                            0x08020488   Data          40  os_dbg.o(.constdata)
    OSDbg_FlagDelEn                          0x080204b0   Data           1  os_dbg.o(.constdata)
    OSDbg_FlagModeClrEn                      0x080204b1   Data           1  os_dbg.o(.constdata)
    OSDbg_FlagPendAbortEn                    0x080204b2   Data           1  os_dbg.o(.constdata)
    OSDbg_FlagGrpSize                        0x080204b4   Data           2  os_dbg.o(.constdata)
    OSDbg_FlagWidth                          0x080204b6   Data           2  os_dbg.o(.constdata)
    OSDbg_IntQ                               0x080204b8   Data           2  os_dbg.o(.constdata)
    OSDbg_ISRPostDeferredEn                  0x080204ba   Data           1  os_dbg.o(.constdata)
    OSDbg_Mem                                0x080204bc   Data          32  os_dbg.o(.constdata)
    OSDbg_MemEn                              0x080204dc   Data           1  os_dbg.o(.constdata)
    OSDbg_MemSize                            0x080204de   Data           2  os_dbg.o(.constdata)
    OSDbg_MsgEn                              0x080204e0   Data           1  os_dbg.o(.constdata)
    OSDbg_MsgSize                            0x080204e2   Data           2  os_dbg.o(.constdata)
    OSDbg_MsgPoolSize                        0x080204e4   Data           2  os_dbg.o(.constdata)
    OSDbg_MsgQSize                           0x080204e6   Data           2  os_dbg.o(.constdata)
    OSDbg_Mutex                              0x080204e8   Data          44  os_dbg.o(.constdata)
    OSDbg_MutexEn                            0x08020514   Data           1  os_dbg.o(.constdata)
    OSDbg_MutexDelEn                         0x08020515   Data           1  os_dbg.o(.constdata)
    OSDbg_MutexPendAbortEn                   0x08020516   Data           1  os_dbg.o(.constdata)
    OSDbg_MutexSize                          0x08020518   Data           2  os_dbg.o(.constdata)
    OSDbg_ObjTypeChkEn                       0x0802051a   Data           1  os_dbg.o(.constdata)
    OSDbg_PendMultiEn                        0x0802051b   Data           1  os_dbg.o(.constdata)
    OSDbg_PendDataSize                       0x0802051c   Data           2  os_dbg.o(.constdata)
    OSDbg_PendListSize                       0x0802051e   Data           2  os_dbg.o(.constdata)
    OSDbg_PendObjSize                        0x08020520   Data           2  os_dbg.o(.constdata)
    OSDbg_PrioMax                            0x08020522   Data           2  os_dbg.o(.constdata)
    OSDbg_PrioTblSize                        0x08020524   Data           2  os_dbg.o(.constdata)
    OSDbg_PtrSize                            0x08020526   Data           2  os_dbg.o(.constdata)
    OSDbg_Q                                  0x08020528   Data          48  os_dbg.o(.constdata)
    OSDbg_QEn                                0x08020558   Data           1  os_dbg.o(.constdata)
    OSDbg_QDelEn                             0x08020559   Data           1  os_dbg.o(.constdata)
    OSDbg_QFlushEn                           0x0802055a   Data           1  os_dbg.o(.constdata)
    OSDbg_QPendAbortEn                       0x0802055b   Data           1  os_dbg.o(.constdata)
    OSDbg_QSize                              0x0802055c   Data           2  os_dbg.o(.constdata)
    OSDbg_SchedRoundRobinEn                  0x0802055e   Data           1  os_dbg.o(.constdata)
    OSDbg_Sem                                0x08020560   Data          40  os_dbg.o(.constdata)
    OSDbg_SemEn                              0x08020588   Data           1  os_dbg.o(.constdata)
    OSDbg_SemDelEn                           0x08020589   Data           1  os_dbg.o(.constdata)
    OSDbg_SemPendAbortEn                     0x0802058a   Data           1  os_dbg.o(.constdata)
    OSDbg_SemSetEn                           0x0802058b   Data           1  os_dbg.o(.constdata)
    OSDbg_SemSize                            0x0802058c   Data           2  os_dbg.o(.constdata)
    OSDbg_RdyList                            0x0802058e   Data           2  os_dbg.o(.constdata)
    OSDbg_RdyListSize                        0x08020590   Data           4  os_dbg.o(.constdata)
    OSDbg_StkWidth                           0x08020594   Data           1  os_dbg.o(.constdata)
    OSDbg_StatTaskEn                         0x08020595   Data           1  os_dbg.o(.constdata)
    OSDbg_StatTaskStkChkEn                   0x08020596   Data           1  os_dbg.o(.constdata)
    OSDbg_TaskChangePrioEn                   0x08020597   Data           1  os_dbg.o(.constdata)
    OSDbg_TaskDelEn                          0x08020598   Data           1  os_dbg.o(.constdata)
    OSDbg_TaskQEn                            0x08020599   Data           1  os_dbg.o(.constdata)
    OSDbg_TaskQPendAbortEn                   0x0802059a   Data           1  os_dbg.o(.constdata)
    OSDbg_TaskProfileEn                      0x0802059b   Data           1  os_dbg.o(.constdata)
    OSDbg_TaskRegTblSize                     0x0802059c   Data           2  os_dbg.o(.constdata)
    OSDbg_TaskSemPendAbortEn                 0x0802059e   Data           1  os_dbg.o(.constdata)
    OSDbg_TaskSuspendEn                      0x0802059f   Data           1  os_dbg.o(.constdata)
    OSDbg_TCBSize                            0x080205a0   Data           2  os_dbg.o(.constdata)
    OSDbg_TickSpokeSize                      0x080205a2   Data           2  os_dbg.o(.constdata)
    OSDbg_TimeDlyHMSMEn                      0x080205a4   Data           1  os_dbg.o(.constdata)
    OSDbg_TimeDlyResumeEn                    0x080205a5   Data           1  os_dbg.o(.constdata)
    OSDbg_TLS_TblSize                        0x080205a6   Data           2  os_dbg.o(.constdata)
    OSDbg_Tmr                                0x080205a8   Data          52  os_dbg.o(.constdata)
    OSDbg_TmrEn                              0x080205dc   Data           1  os_dbg.o(.constdata)
    OSDbg_TmrDelEn                           0x080205dd   Data           1  os_dbg.o(.constdata)
    OSDbg_TmrSize                            0x080205de   Data           2  os_dbg.o(.constdata)
    OSDbg_TmrSpokeSize                       0x080205e0   Data           2  os_dbg.o(.constdata)
    OSDbg_VersionNbr                         0x080205e2   Data           2  os_dbg.o(.constdata)
    OSDbg_DataSize                           0x080205e4   Data           4  os_dbg.o(.constdata)
    memtblsize                               0x080205e8   Data           8  malloc.o(.constdata)
    memblksize                               0x080205f0   Data           8  malloc.o(.constdata)
    memsize                                  0x080205f8   Data           8  malloc.o(.constdata)
    Region$$Table$$Base                      0x080206ec   Number         0  anon$$obj.o(Region$$Table)
    Region$$Table$$Limit                     0x0802070c   Number         0  anon$$obj.o(Region$$Table)
    __ctype                                  0x08020735   Data           0  lc_ctype_c.o(locale$$data)
    SystemCoreClock                          0x20000000   Data           4  system_stm32f10x.o(.data)
    AHBPrescTable                            0x20000004   Data          16  system_stm32f10x.o(.data)
    TIM3_Flag                                0x20000015   Data           1  timer.o(.data)
    SPI_FLASH_TYPE                           0x20000016   Data           2  flash.o(.data)
    Overflow                                 0x20000018   Data           1  usart4.o(.data)
    USARTCONT                                0x2000001c   Data           4  usart4.o(.data)
    USART4_RX_STA                            0x20000020   Data           2  usart4.o(.data)
    random_seed                              0x20000028   Data           4  sys.o(.data)
    __stdout                                 0x2000002c   Data           4  usart.o(.data)
    USART_RX_STA                             0x20000030   Data           2  usart.o(.data)
    CPU_TS_TmrFreq_Hz                        0x20000048   Data           4  cpu_core.o(.data)
    Mem_PoolTbl                              0x2000004c   Data           4  lib_mem.o(.data)
    OSPrioTbl                                0x20000050   Data           8  os_prio.o(.data)
    OS_AppTaskCreateHookPtr                  0x20000058   Data           4  os_var.o(.data)
    OS_AppTaskDelHookPtr                     0x2000005c   Data           4  os_var.o(.data)
    OS_AppTaskReturnHookPtr                  0x20000060   Data           4  os_var.o(.data)
    OS_AppIdleTaskHookPtr                    0x20000064   Data           4  os_var.o(.data)
    OS_AppStatTaskHookPtr                    0x20000068   Data           4  os_var.o(.data)
    OS_AppTaskSwHookPtr                      0x2000006c   Data           4  os_var.o(.data)
    OS_AppTimeTickHookPtr                    0x20000070   Data           4  os_var.o(.data)
    OSIdleTaskCtr                            0x20000074   Data           4  os_var.o(.data)
    OSIntNestingCtr                          0x20000078   Data           1  os_var.o(.data)
    OSRunning                                0x20000079   Data           1  os_var.o(.data)
    OSIntQInPtr                              0x2000007c   Data           4  os_var.o(.data)
    OSIntQOutPtr                             0x20000080   Data           4  os_var.o(.data)
    OSIntQNbrEntries                         0x20000084   Data           2  os_var.o(.data)
    OSIntQNbrEntriesMax                      0x20000086   Data           2  os_var.o(.data)
    OSIntQOvfCtr                             0x20000088   Data           2  os_var.o(.data)
    OSIntQTaskTimeMax                        0x2000008c   Data           4  os_var.o(.data)
    OSFlagDbgListPtr                         0x20000090   Data           4  os_var.o(.data)
    OSFlagQty                                0x20000094   Data           2  os_var.o(.data)
    OSMemDbgListPtr                          0x20000098   Data           4  os_var.o(.data)
    OSMemQty                                 0x2000009c   Data           2  os_var.o(.data)
    OSMutexDbgListPtr                        0x200000a0   Data           4  os_var.o(.data)
    OSMutexQty                               0x200000a4   Data           2  os_var.o(.data)
    OSPrioCur                                0x200000a6   Data           1  os_var.o(.data)
    OSPrioHighRdy                            0x200000a7   Data           1  os_var.o(.data)
    OSPrioSaved                              0x200000a8   Data           1  os_var.o(.data)
    OSQDbgListPtr                            0x200000ac   Data           4  os_var.o(.data)
    OSQQty                                   0x200000b0   Data           2  os_var.o(.data)
    OSSchedLockTimeBegin                     0x200000b4   Data           4  os_var.o(.data)
    OSSchedLockTimeMax                       0x200000b8   Data           4  os_var.o(.data)
    OSSchedLockTimeMaxCur                    0x200000bc   Data           4  os_var.o(.data)
    OSSchedLockNestingCtr                    0x200000c0   Data           1  os_var.o(.data)
    OSSemDbgListPtr                          0x200000c4   Data           4  os_var.o(.data)
    OSSemQty                                 0x200000c8   Data           2  os_var.o(.data)
    OSStatResetFlag                          0x200000ca   Data           1  os_var.o(.data)
    OSStatTaskCPUUsage                       0x200000cc   Data           2  os_var.o(.data)
    OSStatTaskCPUUsageMax                    0x200000ce   Data           2  os_var.o(.data)
    OSStatTaskCtr                            0x200000d0   Data           4  os_var.o(.data)
    OSStatTaskCtrMax                         0x200000d4   Data           4  os_var.o(.data)
    OSStatTaskCtrRun                         0x200000d8   Data           4  os_var.o(.data)
    OSStatTaskRdy                            0x200000dc   Data           1  os_var.o(.data)
    OSStatTaskTimeMax                        0x200000e0   Data           4  os_var.o(.data)
    OSTaskCtxSwCtr                           0x200000e4   Data           4  os_var.o(.data)
    OSTaskDbgListPtr                         0x200000e8   Data           4  os_var.o(.data)
    OSTaskQty                                0x200000ec   Data           2  os_var.o(.data)
    OSTaskRegNextAvailID                     0x200000ee   Data           1  os_var.o(.data)
    OSTickCtr                                0x200000f0   Data           4  os_var.o(.data)
    OSTickTaskTimeMax                        0x200000f4   Data           4  os_var.o(.data)
    OSTmrDbgListPtr                          0x200000f8   Data           4  os_var.o(.data)
    OSTmrQty                                 0x200000fc   Data           2  os_var.o(.data)
    OSTmrTaskTimeMax                         0x20000100   Data           4  os_var.o(.data)
    OSTmrTickCtr                             0x20000104   Data           4  os_var.o(.data)
    OSTmrUpdateCnt                           0x20000108   Data           4  os_var.o(.data)
    OSTmrUpdateCtr                           0x2000010c   Data           4  os_var.o(.data)
    OSTCBCurPtr                              0x20000110   Data           4  os_var.o(.data)
    OSTCBHighRdyPtr                          0x20000114   Data           4  os_var.o(.data)
    OS_CPU_ExceptStkBase                     0x20000118   Data           4  os_cpu_c.o(.data)
    mallco_dev                               0x2000011c   Data          28  malloc.o(.data)
    srandgen                                 0x20000138   Data           4  sha1.o(.data)
    hex                                      0x2000013c   Data           4  sha1.o(.data)
    StartTaskTCB                             0x20000140   Data         196  main.o(.bss)
    Start1TaskTCB                            0x20000408   Data         196  main.o(.bss)
    Start2TaskTCB                            0x200006d0   Data         196  main.o(.bss)
    pRb                                      0x20000998   Data          16  usart4.o(.bss)
    USART4_RX_BUF                            0x200009a8   Data        2048  usart4.o(.bss)
    USART4_TX_BUF                            0x200011a8   Data        1024  usart4.o(.bss)
    USART_RX_BUF                             0x200015a8   Data         200  usart.o(.bss)
    CPU_Name                                 0x20001670   Data          16  cpu_core.o(.bss)
    Mem_PoolHeap                             0x20001680   Data          72  lib_mem.o(.bss)
    Mem_Heap                                 0x200016c8   Data        1024  lib_mem.o(.bss)
    OSCfg_IdleTaskStk                        0x20001ac8   Data         512  os_cfg_app.o(.bss)
    OSCfg_IntQ                               0x20001cc8   Data         320  os_cfg_app.o(.bss)
    OSCfg_IntQTaskStk                        0x20001e08   Data         512  os_cfg_app.o(.bss)
    OSCfg_ISRStk                             0x20002008   Data         512  os_cfg_app.o(.bss)
    OSCfg_MsgPool                            0x20002208   Data        1600  os_cfg_app.o(.bss)
    OSCfg_StatTaskStk                        0x20002848   Data         512  os_cfg_app.o(.bss)
    OSCfg_TickTaskStk                        0x20002a48   Data         512  os_cfg_app.o(.bss)
    OSCfg_TickWheel                          0x20002c48   Data         136  os_cfg_app.o(.bss)
    OSCfg_TmrTaskStk                         0x20002cd0   Data         512  os_cfg_app.o(.bss)
    OSCfg_TmrWheel                           0x20002ed0   Data         136  os_cfg_app.o(.bss)
    OSIdleTaskTCB                            0x20002f58   Data         196  os_var.o(.bss)
    OSIntQTaskTCB                            0x2000301c   Data         196  os_var.o(.bss)
    OSMsgPool                                0x200030e0   Data          12  os_var.o(.bss)
    OSRdyList                                0x200030ec   Data         768  os_var.o(.bss)
    OSStatTaskTCB                            0x200033ec   Data         196  os_var.o(.bss)
    OSTickTaskTCB                            0x200034b0   Data         196  os_var.o(.bss)
    OSTmrTaskTCB                             0x20003574   Data         196  os_var.o(.bss)
    mem1base                                 0x20003640   Data       20480  malloc.o(.bss)
    mem1mapbase                              0x20008640   Data        1280  malloc.o(.bss)
    STMFLASH_BUF                             0x20008b40   Data        2048  stmflash.o(.bss)
    __libspace_start                         0x20009340   Data          96  libspace.o(.bss)
    __temporary_stack_top$libspace           0x200093a0   Data           0  libspace.o(.bss)
    mem2base                                 0x68000000   Data       20480  malloc.o(.ARM.__AT_0x68000000)
    mem2mapbase                              0x68005000   Data        1280  malloc.o(.ARM.__AT_0x68005000)



==============================================================================

Memory Map of the image

  Image Entry point : 0x08010131

  Load Region LR_IROM1 (Base: 0x08010000, Size: 0x00010978, Max: 0x00070000, ABSOLUTE, COMPRESSED[0x00010878])

    Execution Region ER_IROM1 (Base: 0x08010000, Size: 0x00010838, Max: 0x00070000, ABSOLUTE)

    Base Addr    Size         Type   Attr      Idx    E Section Name        Object

    0x08010000   0x00000130   Data   RO          453    RESET               startup_stm32f10x_hd.o
    0x08010130   0x00000008   Code   RO         1143  * !!!main             c_w.l(__main.o)
    0x08010138   0x00000034   Code   RO         1423    !!!scatter          c_w.l(__scatter.o)
    0x0801016c   0x0000005a   Code   RO         1421    !!dczerorl2         c_w.l(__dczerorl2.o)
    0x080101c6   0x00000002   PAD
    0x080101c8   0x0000001c   Code   RO         1425    !!handler_zi        c_w.l(__scatter_zi.o)
    0x080101e4   0x00000000   Code   RO         1134    .ARM.Collect$$_printf_percent$$00000000  c_w.l(_printf_percent.o)
    0x080101e4   0x00000006   Code   RO         1181    .ARM.Collect$$_printf_percent$$00000001  c_w.l(_printf_n.o)
    0x080101ea   0x00000006   Code   RO         1182    .ARM.Collect$$_printf_percent$$00000002  c_w.l(_printf_p.o)
    0x080101f0   0x00000006   Code   RO         1187    .ARM.Collect$$_printf_percent$$00000003  c_w.l(_printf_f.o)
    0x080101f6   0x00000006   Code   RO         1188    .ARM.Collect$$_printf_percent$$00000004  c_w.l(_printf_e.o)
    0x080101fc   0x00000006   Code   RO         1189    .ARM.Collect$$_printf_percent$$00000005  c_w.l(_printf_g.o)
    0x08010202   0x00000006   Code   RO         1190    .ARM.Collect$$_printf_percent$$00000006  c_w.l(_printf_a.o)
    0x08010208   0x0000000a   Code   RO         1195    .ARM.Collect$$_printf_percent$$00000007  c_w.l(_printf_ll.o)
    0x08010212   0x00000006   Code   RO         1184    .ARM.Collect$$_printf_percent$$00000008  c_w.l(_printf_i.o)
    0x08010218   0x00000006   Code   RO         1185    .ARM.Collect$$_printf_percent$$00000009  c_w.l(_printf_d.o)
    0x0801021e   0x00000006   Code   RO         1186    .ARM.Collect$$_printf_percent$$0000000A  c_w.l(_printf_u.o)
    0x08010224   0x00000006   Code   RO         1183    .ARM.Collect$$_printf_percent$$0000000B  c_w.l(_printf_o.o)
    0x0801022a   0x00000006   Code   RO         1133    .ARM.Collect$$_printf_percent$$0000000C  c_w.l(_printf_x.o)
    0x08010230   0x00000006   Code   RO         1192    .ARM.Collect$$_printf_percent$$0000000D  c_w.l(_printf_lli.o)
    0x08010236   0x00000006   Code   RO         1193    .ARM.Collect$$_printf_percent$$0000000E  c_w.l(_printf_lld.o)
    0x0801023c   0x00000006   Code   RO         1194    .ARM.Collect$$_printf_percent$$0000000F  c_w.l(_printf_llu.o)
    0x08010242   0x00000006   Code   RO         1199    .ARM.Collect$$_printf_percent$$00000010  c_w.l(_printf_llo.o)
    0x08010248   0x00000006   Code   RO         1200    .ARM.Collect$$_printf_percent$$00000011  c_w.l(_printf_llx.o)
    0x0801024e   0x0000000a   Code   RO         1196    .ARM.Collect$$_printf_percent$$00000012  c_w.l(_printf_l.o)
    0x08010258   0x00000006   Code   RO         1179    .ARM.Collect$$_printf_percent$$00000013  c_w.l(_printf_c.o)
    0x0801025e   0x00000006   Code   RO         1180    .ARM.Collect$$_printf_percent$$00000014  c_w.l(_printf_s.o)
    0x08010264   0x00000006   Code   RO         1197    .ARM.Collect$$_printf_percent$$00000015  c_w.l(_printf_lc.o)
    0x0801026a   0x00000006   Code   RO         1198    .ARM.Collect$$_printf_percent$$00000016  c_w.l(_printf_ls.o)
    0x08010270   0x00000004   Code   RO         1191    .ARM.Collect$$_printf_percent$$00000017  c_w.l(_printf_percent_end.o)
    0x08010274   0x00000002   Code   RO         1288    .ARM.Collect$$libinit$$00000000  c_w.l(libinit.o)
    0x08010276   0x00000000   Code   RO         1311    .ARM.Collect$$libinit$$00000002  c_w.l(libinit2.o)
    0x08010276   0x00000000   Code   RO         1314    .ARM.Collect$$libinit$$00000008  c_w.l(libinit2.o)
    0x08010276   0x00000000   Code   RO         1316    .ARM.Collect$$libinit$$0000000A  c_w.l(libinit2.o)
    0x08010276   0x00000000   Code   RO         1318    .ARM.Collect$$libinit$$0000000C  c_w.l(libinit2.o)
    0x08010276   0x00000006   Code   RO         1319    .ARM.Collect$$libinit$$0000000D  c_w.l(libinit2.o)
    0x0801027c   0x00000000   Code   RO         1321    .ARM.Collect$$libinit$$0000000F  c_w.l(libinit2.o)
    0x0801027c   0x0000000c   Code   RO         1322    .ARM.Collect$$libinit$$00000010  c_w.l(libinit2.o)
    0x08010288   0x00000000   Code   RO         1323    .ARM.Collect$$libinit$$00000011  c_w.l(libinit2.o)
    0x08010288   0x00000000   Code   RO         1325    .ARM.Collect$$libinit$$00000013  c_w.l(libinit2.o)
    0x08010288   0x0000000a   Code   RO         1326    .ARM.Collect$$libinit$$00000014  c_w.l(libinit2.o)
    0x08010292   0x00000000   Code   RO         1327    .ARM.Collect$$libinit$$00000015  c_w.l(libinit2.o)
    0x08010292   0x00000000   Code   RO         1329    .ARM.Collect$$libinit$$00000017  c_w.l(libinit2.o)
    0x08010292   0x00000000   Code   RO         1331    .ARM.Collect$$libinit$$00000019  c_w.l(libinit2.o)
    0x08010292   0x00000000   Code   RO         1333    .ARM.Collect$$libinit$$0000001B  c_w.l(libinit2.o)
    0x08010292   0x00000000   Code   RO         1335    .ARM.Collect$$libinit$$0000001D  c_w.l(libinit2.o)
    0x08010292   0x00000000   Code   RO         1337    .ARM.Collect$$libinit$$0000001F  c_w.l(libinit2.o)
    0x08010292   0x00000000   Code   RO         1339    .ARM.Collect$$libinit$$00000021  c_w.l(libinit2.o)
    0x08010292   0x00000000   Code   RO         1341    .ARM.Collect$$libinit$$00000023  c_w.l(libinit2.o)
    0x08010292   0x00000000   Code   RO         1345    .ARM.Collect$$libinit$$0000002A  c_w.l(libinit2.o)
    0x08010292   0x00000000   Code   RO         1347    .ARM.Collect$$libinit$$0000002C  c_w.l(libinit2.o)
    0x08010292   0x00000000   Code   RO         1349    .ARM.Collect$$libinit$$0000002E  c_w.l(libinit2.o)
    0x08010292   0x00000000   Code   RO         1351    .ARM.Collect$$libinit$$00000030  c_w.l(libinit2.o)
    0x08010292   0x00000002   Code   RO         1352    .ARM.Collect$$libinit$$00000031  c_w.l(libinit2.o)
    0x08010294   0x00000002   Code   RO         1378    .ARM.Collect$$libshutdown$$00000000  c_w.l(libshutdown.o)
    0x08010296   0x00000000   Code   RO         1406    .ARM.Collect$$libshutdown$$00000003  c_w.l(libshutdown2.o)
    0x08010296   0x00000000   Code   RO         1409    .ARM.Collect$$libshutdown$$00000006  c_w.l(libshutdown2.o)
    0x08010296   0x00000000   Code   RO         1412    .ARM.Collect$$libshutdown$$00000009  c_w.l(libshutdown2.o)
    0x08010296   0x00000000   Code   RO         1414    .ARM.Collect$$libshutdown$$0000000B  c_w.l(libshutdown2.o)
    0x08010296   0x00000000   Code   RO         1417    .ARM.Collect$$libshutdown$$0000000E  c_w.l(libshutdown2.o)
    0x08010296   0x00000002   Code   RO         1418    .ARM.Collect$$libshutdown$$0000000F  c_w.l(libshutdown2.o)
    0x08010298   0x00000000   Code   RO         1147    .ARM.Collect$$rtentry$$00000000  c_w.l(rtentry.o)
    0x08010298   0x00000000   Code   RO         1206    .ARM.Collect$$rtentry$$00000002  c_w.l(rtentry2.o)
    0x08010298   0x00000006   Code   RO         1218    .ARM.Collect$$rtentry$$00000004  c_w.l(rtentry4.o)
    0x0801029e   0x00000000   Code   RO         1208    .ARM.Collect$$rtentry$$00000009  c_w.l(rtentry2.o)
    0x0801029e   0x00000004   Code   RO         1209    .ARM.Collect$$rtentry$$0000000A  c_w.l(rtentry2.o)
    0x080102a2   0x00000000   Code   RO         1211    .ARM.Collect$$rtentry$$0000000C  c_w.l(rtentry2.o)
    0x080102a2   0x00000008   Code   RO         1212    .ARM.Collect$$rtentry$$0000000D  c_w.l(rtentry2.o)
    0x080102aa   0x00000002   Code   RO         1297    .ARM.Collect$$rtexit$$00000000  c_w.l(rtexit.o)
    0x080102ac   0x00000000   Code   RO         1354    .ARM.Collect$$rtexit$$00000002  c_w.l(rtexit2.o)
    0x080102ac   0x00000004   Code   RO         1355    .ARM.Collect$$rtexit$$00000003  c_w.l(rtexit2.o)
    0x080102b0   0x00000006   Code   RO         1356    .ARM.Collect$$rtexit$$00000004  c_w.l(rtexit2.o)
    0x080102b6   0x00000002   PAD
    0x080102b8   0x00000006   Code   RO          394    .emb_text           sys.o
    0x080102be   0x00000002   PAD
    0x080102c0   0x000002a0   Code   RO            1    .text               main.o
    0x08010560   0x000001e0   Code   RO          226    .text               system_stm32f10x.o
    0x08010740   0x0000004c   Code   RO          266    .text               led.o
    0x0801078c   0x00000104   Code   RO          278    .text               key.o
    0x08010890   0x00000038   Code   RO          291    .text               beep.o
    0x080108c8   0x000000b0   Code   RO          303    .text               timer.o
    0x08010978   0x00000360   Code   RO          321    .text               flash.o
    0x08010cd8   0x00000108   Code   RO          342    .text               spi.o
    0x08010de0   0x00000214   Code   RO          354    .text               usart4.o
    0x08010ff4   0x0000014c   Code   RO          380    .text               delay.o
    0x08011140   0x0000006c   Code   RO          395    .text               sys.o
    0x080111ac   0x00000150   Code   RO          418    .text               usart.o
    0x080112fc   0x00000040   Code   RO          454    .text               startup_stm32f10x_hd.o
    0x0801133c   0x000000dc   Code   RO          458    .text               misc.o
    0x08011418   0x0000035c   Code   RO          470    .text               stm32f10x_gpio.o
    0x08011774   0x000003a4   Code   RO          482    .text               stm32f10x_rcc.o
    0x08011b18   0x00000e1a   Code   RO          496    .text               stm32f10x_tim.o
    0x08012932   0x00000002   PAD
    0x08012934   0x00000408   Code   RO          508    .text               stm32f10x_usart.o
    0x08012d3c   0x0000030c   Code   RO          532    .text               stm32f10x_spi.o
    0x08013048   0x000005bc   Code   RO          556    .text               stm32f10x_flash.o
    0x08013604   0x00000084   Code   RO          592    .text               bsp.o
    0x08013688   0x000002ac   Code   RO          607    .text               cpu_core.o
    0x08013934   0x00000034   Code   RO          645    .text               cpu_a.o
    0x08013968   0x00000256   Code   RO          648    .text               lib_ascii.o
    0x08013bbe   0x00000002   PAD
    0x08013bc0   0x000009c6   Code   RO          681    .text               lib_mem.o
    0x08014586   0x00000002   PAD
    0x08014588   0x0000092c   Code   RO          700    .text               lib_str.o
    0x08014eb4   0x00000220   Code   RO          717    .text               lib_mem_a.o
    0x080150d4   0x000000fc   Code   RO          720    .text               os_cfg_app.o
    0x080151d0   0x00000bf0   Code   RO          743    .text               os_core.o
    0x08015dc0   0x000001b0   Code   RO          755    .text               os_dbg.o
    0x08015f70   0x00000e28   Code   RO          770    .text               os_flag.o
    0x08016d98   0x00000430   Code   RO          782    .text               os_int.o
    0x080171c8   0x00000238   Code   RO          794    .text               os_mem.o
    0x08017400   0x0000022c   Code   RO          806    .text               os_msg.o
    0x0801762c   0x00000ad4   Code   RO          818    .text               os_mutex.o
    0x08018100   0x0000007c   Code   RO          836    .text               os_prio.o
    0x0801817c   0x000008d8   Code   RO          855    .text               os_q.o
    0x08018a54   0x00000830   Code   RO          867    .text               os_sem.o
    0x08019284   0x00000638   Code   RO          879    .text               os_stat.o
    0x080198bc   0x00001b3c   Code   RO          891    .text               os_task.o
    0x0801b3f8   0x000004fc   Code   RO          903    .text               os_tick.o
    0x0801b8f4   0x00000564   Code   RO          915    .text               os_time.o
    0x0801be58   0x00000818   Code   RO          927    .text               os_tmr.o
    0x0801c670   0x00000260   Code   RO          956    .text               os_cpu_c.o
    0x0801c8d0   0x0000022c   Code   RO          989    .text               malloc.o
    0x0801cafc   0x00000310   Code   RO         1011    .text               looplist.o
    0x0801ce0c   0x00001774   Code   RO         1026    .text               sha1.o
    0x0801e580   0x000001ec   Code   RO         1049    .text               stmflash.o
    0x0801e76c   0x000001bc   Code   RO         1064    .text               iap.o
    0x0801e928   0x00000002   Code   RO         1078    .text               c_w.l(use_no_semi_2.o)
    0x0801e92a   0x000000ee   Code   RO         1080    .text               c_w.l(lludivv7m.o)
    0x0801ea18   0x00000024   Code   RO         1082    .text               c_w.l(c89vsprintf.o)
    0x0801ea3c   0x00000018   Code   RO         1084    .text               c_w.l(__2printf.o)
    0x0801ea54   0x0000004e   Code   RO         1090    .text               c_w.l(_printf_pad.o)
    0x0801eaa2   0x00000002   PAD
    0x0801eaa4   0x00000094   Code   RO         1110    .text               c_w.l(_printf_hex_int_ll_ptr.o)
    0x0801eb38   0x00000188   Code   RO         1130    .text               c_w.l(__printf_flags_ss_wp.o)
    0x0801ecc0   0x0000003e   Code   RO         1135    .text               c_w.l(strlen.o)
    0x0801ecfe   0x0000008a   Code   RO         1137    .text               c_w.l(rt_memcpy_v6.o)
    0x0801ed88   0x0000004e   Code   RO         1139    .text               c_w.l(rt_memclr_w.o)
    0x0801edd6   0x00000006   Code   RO         1141    .text               c_w.l(heapauxi.o)
    0x0801eddc   0x00000002   Code   RO         1145    .text               c_w.l(use_no_semi.o)
    0x0801edde   0x00000024   Code   RO         1152    .text               c_w.l(_printf_truncate.o)
    0x0801ee02   0x00000052   Code   RO         1154    .text               c_w.l(_printf_str.o)
    0x0801ee54   0x000000b2   Code   RO         1156    .text               c_w.l(_printf_intcommon.o)
    0x0801ef06   0x00000002   PAD
    0x0801ef08   0x00000074   Code   RO         1158    .text               c_w.l(_printf_dec.o)
    0x0801ef7c   0x00000028   Code   RO         1160    .text               c_w.l(_printf_charcount.o)
    0x0801efa4   0x00000030   Code   RO         1162    .text               c_w.l(_printf_char_common.o)
    0x0801efd4   0x0000000a   Code   RO         1164    .text               c_w.l(_sputc.o)
    0x0801efde   0x00000002   PAD
    0x0801efe0   0x00000024   Code   RO         1166    .text               c_w.l(_printf_char_file.o)
    0x0801f004   0x000000bc   Code   RO         1168    .text               c_w.l(_printf_wctomb.o)
    0x0801f0c0   0x00000078   Code   RO         1171    .text               c_w.l(_printf_longlong_dec.o)
    0x0801f138   0x00000070   Code   RO         1177    .text               c_w.l(_printf_oct_int_ll.o)
    0x0801f1a8   0x00000064   Code   RO         1201    .text               c_w.l(rt_memcpy_w.o)
    0x0801f20c   0x0000008a   Code   RO         1222    .text               c_w.l(lludiv10.o)
    0x0801f296   0x00000416   Code   RO         1224    .text               c_w.l(_printf_fp_dec.o)
    0x0801f6ac   0x0000002c   Code   RO         1228    .text               c_w.l(_printf_char.o)
    0x0801f6d8   0x0000002c   Code   RO         1230    .text               c_w.l(_printf_wchar.o)
    0x0801f704   0x00000008   Code   RO         1232    .text               c_w.l(ferror.o)
    0x0801f70c   0x00000040   Code   RO         1236    .text               c_w.l(_wcrtomb.o)
    0x0801f74c   0x0000004a   Code   RO         1238    .text               c_w.l(sys_stackheap_outer.o)
    0x0801f796   0x00000002   PAD
    0x0801f798   0x00000010   Code   RO         1240    .text               c_w.l(rt_ctype_table.o)
    0x0801f7a8   0x00000008   Code   RO         1245    .text               c_w.l(rt_locale_intlibspace.o)
    0x0801f7b0   0x00000080   Code   RO         1247    .text               c_w.l(_printf_fp_infnan.o)
    0x0801f830   0x000000d8   Code   RO         1249    .text               c_w.l(bigflt0.o)
    0x0801f908   0x0000000c   Code   RO         1277    .text               c_w.l(exit.o)
    0x0801f914   0x00000008   Code   RO         1294    .text               c_w.l(libspace.o)
    0x0801f91c   0x00000080   Code   RO         1308    .text               c_w.l(strcmpv7m.o)
    0x0801f99c   0x0000003e   Code   RO         1252    CL$$btod_d2e        c_w.l(btod.o)
    0x0801f9da   0x00000046   Code   RO         1254    CL$$btod_d2e_denorm_low  c_w.l(btod.o)
    0x0801fa20   0x00000060   Code   RO         1253    CL$$btod_d2e_norm_op1  c_w.l(btod.o)
    0x0801fa80   0x00000338   Code   RO         1262    CL$$btod_div_common  c_w.l(btod.o)
    0x0801fdb8   0x000000c6   Code   RO         1259    CL$$btod_e2e        c_w.l(btod.o)
    0x0801fe7e   0x00000028   Code   RO         1256    CL$$btod_ediv       c_w.l(btod.o)
    0x0801fea6   0x00000028   Code   RO         1255    CL$$btod_emul       c_w.l(btod.o)
    0x0801fece   0x00000244   Code   RO         1261    CL$$btod_mult_common  c_w.l(btod.o)
    0x08020112   0x00000002   PAD
    0x08020114   0x00000098   Code   RO          953    CODE                os_cpu_a.o
    0x080201ac   0x00000028   Code   RO         1292    i.__ARM_fpclassify  m_ws.l(fpclassify.o)
    0x080201d4   0x0000000e   Code   RO         1123    i._is_digit         c_w.l(__printf_wp.o)
    0x080201e2   0x00000002   PAD
    0x080201e4   0x0000002c   Code   RO         1275    locale$$code        c_w.l(lc_numeric_c.o)
    0x08020210   0x0000002c   Code   RO         1302    locale$$code        c_w.l(lc_ctype_c.o)
    0x0802023c   0x00000004   Code   RO         1203    x$fpl$printf1       fz_ws.l(printf1.o)
    0x08020240   0x00000000   Code   RO         1291    x$fpl$usenofp       fz_ws.l(usenofp.o)
    0x08020240   0x00000104   Data   RO          609    .constdata          cpu_core.o
    0x08020344   0x00000094   Data   RO          701    .constdata          lib_str.o
    0x080203d8   0x000000a4   Data   RO          722    .constdata          os_cfg_app.o
    0x0802047c   0x0000016c   Data   RO          756    .constdata          os_dbg.o
    0x080205e8   0x00000018   Data   RO          993    .constdata          malloc.o
    0x08020600   0x00000028   Data   RO         1111    .constdata          c_w.l(_printf_hex_int_ll_ptr.o)
    0x08020628   0x00000011   Data   RO         1131    .constdata          c_w.l(__printf_flags_ss_wp.o)
    0x08020639   0x00000003   PAD
    0x0802063c   0x00000008   Data   RO         1169    .constdata          c_w.l(_printf_wctomb.o)
    0x08020644   0x00000094   Data   RO         1250    .constdata          c_w.l(bigflt0.o)
    0x080206d8   0x00000011   Data   RO         1027    .conststring        sha1.o
    0x080206e9   0x00000003   PAD
    0x080206ec   0x00000020   Data   RO         1419    Region$$Table       anon$$obj.o
    0x0802070c   0x0000001c   Data   RO         1274    locale$$data        c_w.l(lc_numeric_c.o)
    0x08020728   0x00000110   Data   RO         1301    locale$$data        c_w.l(lc_ctype_c.o)


    Execution Region RW_IRAM1 (Base: 0x20000000, Size: 0x000099a0, Max: 0x00010000, ABSOLUTE, COMPRESSED[0x00000040])

    Base Addr    Size         Type   Attr      Idx    E Section Name        Object

    0x20000000   0x00000014   Data   RW          227    .data               system_stm32f10x.o
    0x20000014   0x00000001   Data   RW          279    .data               key.o
    0x20000015   0x00000001   Data   RW          304    .data               timer.o
    0x20000016   0x00000002   Data   RW          322    .data               flash.o
    0x20000018   0x0000000a   Data   RW          356    .data               usart4.o
    0x20000022   0x00000004   Data   RW          381    .data               delay.o
    0x20000026   0x00000002   PAD
    0x20000028   0x00000004   Data   RW          396    .data               sys.o
    0x2000002c   0x00000006   Data   RW          420    .data               usart.o
    0x20000032   0x00000014   Data   RW          483    .data               stm32f10x_rcc.o
    0x20000046   0x00000002   PAD
    0x20000048   0x00000004   Data   RW          610    .data               cpu_core.o
    0x2000004c   0x00000004   Data   RW          683    .data               lib_mem.o
    0x20000050   0x00000008   Data   RW          837    .data               os_prio.o
    0x20000058   0x000000c0   Data   RW          940    .data               os_var.o
    0x20000118   0x00000004   Data   RW          957    .data               os_cpu_c.o
    0x2000011c   0x0000001c   Data   RW          994    .data               malloc.o
    0x20000138   0x00000008   Data   RW         1028    .data               sha1.o
    0x20000140   0x00000858   Zero   RW            2    .bss                main.o
    0x20000998   0x00000c10   Zero   RW          355    .bss                usart4.o
    0x200015a8   0x000000c8   Zero   RW          419    .bss                usart.o
    0x20001670   0x00000010   Zero   RW          608    .bss                cpu_core.o
    0x20001680   0x00000448   Zero   RW          682    .bss                lib_mem.o
    0x20001ac8   0x00001490   Zero   RW          721    .bss                os_cfg_app.o
    0x20002f58   0x000006e0   Zero   RW          939    .bss                os_var.o
    0x20003638   0x00000008   PAD
    0x20003640   0x00005500   Zero   RW          992    .bss                malloc.o
    0x20008b40   0x00000800   Zero   RW         1050    .bss                stmflash.o
    0x20009340   0x00000060   Zero   RW         1295    .bss                c_w.l(libspace.o)
    0x200093a0   0x00000200   Zero   RW          452    HEAP                startup_stm32f10x_hd.o
    0x200095a0   0x00000400   Zero   RW          451    STACK               startup_stm32f10x_hd.o



  Load Region LR$$.ARM.__AT_0x68000000 (Base: 0x68000000, Size: 0x00000000, Max: 0x00005000, ABSOLUTE)

    Execution Region ER$$.ARM.__AT_0x68000000 (Base: 0x68000000, Size: 0x00005000, Max: 0x00005000, ABSOLUTE, UNINIT)

    Base Addr    Size         Type   Attr      Idx    E Section Name        Object

    0x68000000   0x00005000   Zero   RW          990    .ARM.__AT_0x68000000  malloc.o



  Load Region LR$$.ARM.__AT_0x68005000 (Base: 0x68005000, Size: 0x00000000, Max: 0x00000500, ABSOLUTE)

    Execution Region ER$$.ARM.__AT_0x68005000 (Base: 0x68005000, Size: 0x00000500, Max: 0x00000500, ABSOLUTE, UNINIT)

    Base Addr    Size         Type   Attr      Idx    E Section Name        Object

    0x68005000   0x00000500   Zero   RW          991    .ARM.__AT_0x68005000  malloc.o


==============================================================================

Image component sizes


      Code (inc. data)   RO Data    RW Data    ZI Data      Debug   Object Name

        56         10          0          0          0        476   beep.o
       132         12          0          0          0       1131   bsp.o
        52          0          0          0          0        336   cpu_a.o
       684         14        260          4         16      14243   cpu_core.o
       332         28          0          4          0       1769   delay.o
       864         18          0          2          0       4207   flash.o
       444        134          0          0          0       1501   iap.o
       260         14          0          1          0        820   key.o
        76         18          0          0          0        475   led.o
       598          0          0          0          0       3688   lib_ascii.o
      2502         32          0          4       1096      21724   lib_mem.o
       544          0          0          0          0        480   lib_mem_a.o
      2348          6        148          0          0      13042   lib_str.o
       784        190          0          0          0       3315   looplist.o
       672         92          0          0       2136     309229   main.o
       556         18         24         28      43520       4500   malloc.o
       220         22          0          0          0       1809   misc.o
       252        166        164          0       5264      20746   os_cfg_app.o
      3056        230          0          0          0      10862   os_core.o
       152         32          0          0          0        392   os_cpu_a.o
       608         64          0          4          0       3705   os_cpu_c.o
       432        286        364          0          0       4733   os_dbg.o
      3624        110          0          0          0       7683   os_flag.o
      1072        144          0          0          0       2248   os_int.o
       568         20          0          0          0       2652   os_mem.o
       556         12          0          0          0       2715   os_msg.o
      2772        114          0          0          0       5374   os_mutex.o
       124          4          0          8          0       1728   os_prio.o
      2264         76          0          0          0       6056   os_q.o
      2096         70          0          0          0       6068   os_sem.o
      1592        180          0          0          0       2757   os_stat.o
      6972        262          0          0          0      13058   os_task.o
      1276         90          0          0          0       3213   os_tick.o
      1380         46          0          0          0       3149   os_time.o
      2072        140          0          0          0       6250   os_tmr.o
         0          0          0        192       1760      19205   os_var.o
      6004         66         17          8          0       6248   sha1.o
       264         10          0          0          0       1089   spi.o
        64         26        304          0       1536        792   startup_stm32f10x_hd.o
      1468         34          0          0          0       8046   stm32f10x_flash.o
       860         38          0          0          0       5657   stm32f10x_gpio.o
       932         36          0         20          0       8824   stm32f10x_rcc.o
       780         14          0          0          0       6534   stm32f10x_spi.o
      3610         88          0          0          0      22140   stm32f10x_tim.o
      1032         22          0          0          0       8380   stm32f10x_usart.o
       492          8          0          0       2048       3021   stmflash.o
       114         16          0          4          0      16920   sys.o
       480         38          0         20          0       1707   system_stm32f10x.o
       176         30          0          1          0        996   timer.o
       336         18          0          6        200       3154   usart.o
       532         44          0         10       3088       3195   usart4.o

    ----------------------------------------------------------------------
     59144       3142       1316        320      60672     602042   Object Totals
         0          0         32          0          0          0   (incl. Generated)
         8          0          3          4          8          0   (incl. Padding)

    ----------------------------------------------------------------------

      Code (inc. data)   RO Data    RW Data    ZI Data      Debug   Library Member Name

        24          4          0          0          0         84   __2printf.o
        90          0          0          0          0          0   __dczerorl2.o
         8          0          0          0          0         68   __main.o
       392          4         17          0          0         92   __printf_flags_ss_wp.o
        14          0          0          0          0         68   __printf_wp.o
        52          8          0          0          0          0   __scatter.o
        28          0          0          0          0          0   __scatter_zi.o
         6          0          0          0          0          0   _printf_a.o
         6          0          0          0          0          0   _printf_c.o
        44          0          0          0          0        108   _printf_char.o
        48          6          0          0          0         96   _printf_char_common.o
        36          4          0          0          0         80   _printf_char_file.o
        40          0          0          0          0         68   _printf_charcount.o
         6          0          0          0          0          0   _printf_d.o
       116         16          0          0          0         92   _printf_dec.o
         6          0          0          0          0          0   _printf_e.o
         6          0          0          0          0          0   _printf_f.o
      1046          0          0          0          0        216   _printf_fp_dec.o
       128         16          0          0          0         84   _printf_fp_infnan.o
         6          0          0          0          0          0   _printf_g.o
       148          4         40          0          0        160   _printf_hex_int_ll_ptr.o
         6          0          0          0          0          0   _printf_i.o
       178          0          0          0          0         88   _printf_intcommon.o
        10          0          0          0          0          0   _printf_l.o
         6          0          0          0          0          0   _printf_lc.o
        10          0          0          0          0          0   _printf_ll.o
         6          0          0          0          0          0   _printf_lld.o
         6          0          0          0          0          0   _printf_lli.o
         6          0          0          0          0          0   _printf_llo.o
         6          0          0          0          0          0   _printf_llu.o
         6          0          0          0          0          0   _printf_llx.o
       120         16          0          0          0         92   _printf_longlong_dec.o
         6          0          0          0          0          0   _printf_ls.o
         6          0          0          0          0          0   _printf_n.o
         6          0          0          0          0          0   _printf_o.o
       112          8          0          0          0        124   _printf_oct_int_ll.o
         6          0          0          0          0          0   _printf_p.o
        78          0          0          0          0        108   _printf_pad.o
         0          0          0          0          0          0   _printf_percent.o
         4          0          0          0          0          0   _printf_percent_end.o
         6          0          0          0          0          0   _printf_s.o
        82          0          0          0          0         80   _printf_str.o
        36          0          0          0          0         84   _printf_truncate.o
         6          0          0          0          0          0   _printf_u.o
        44          0          0          0          0        108   _printf_wchar.o
       188          6          8          0          0         92   _printf_wctomb.o
         6          0          0          0          0          0   _printf_x.o
        10          0          0          0          0         68   _sputc.o
        64          0          0          0          0         92   _wcrtomb.o
       216          4        148          0          0         96   bigflt0.o
      1910        128          0          0          0        672   btod.o
        36          4          0          0          0         76   c89vsprintf.o
        12          0          0          0          0         72   exit.o
         8          0          0          0          0         68   ferror.o
         6          0          0          0          0        152   heapauxi.o
        44         10        272          0          0         76   lc_ctype_c.o
        44         10         28          0          0         76   lc_numeric_c.o
         2          0          0          0          0          0   libinit.o
        30          0          0          0          0          0   libinit2.o
         2          0          0          0          0          0   libshutdown.o
         2          0          0          0          0          0   libshutdown2.o
         8          4          0          0         96         68   libspace.o
       138          0          0          0          0         80   lludiv10.o
       238          0          0          0          0        100   lludivv7m.o
        16          4          0          0          0         76   rt_ctype_table.o
         8          4          0          0          0         68   rt_locale_intlibspace.o
        78          0          0          0          0         80   rt_memclr_w.o
       138          0          0          0          0         68   rt_memcpy_v6.o
       100          0          0          0          0         80   rt_memcpy_w.o
         0          0          0          0          0          0   rtentry.o
        12          0          0          0          0          0   rtentry2.o
         6          0          0          0          0          0   rtentry4.o
         2          0          0          0          0          0   rtexit.o
        10          0          0          0          0          0   rtexit2.o
       128          0          0          0          0         68   strcmpv7m.o
        62          0          0          0          0         76   strlen.o
        74          0          0          0          0         80   sys_stackheap_outer.o
         2          0          0          0          0         68   use_no_semi.o
         2          0          0          0          0         68   use_no_semi_2.o
         4          0          0          0          0         68   printf1.o
         0          0          0          0          0          0   usenofp.o
        40          0          0          0          0         68   fpclassify.o

    ----------------------------------------------------------------------
      6664        260        516          0         96       4556   Library Totals
        16          0          3          0          0          0   (incl. Padding)

    ----------------------------------------------------------------------

      Code (inc. data)   RO Data    RW Data    ZI Data      Debug   Library Name

      6604        260        513          0         96       4420   c_w.l
         4          0          0          0          0         68   fz_ws.l
        40          0          0          0          0         68   m_ws.l

    ----------------------------------------------------------------------
      6664        260        516          0         96       4556   Library Totals

    ----------------------------------------------------------------------

==============================================================================


      Code (inc. data)   RO Data    RW Data    ZI Data      Debug   

     65808       3402       1832        320      60768     599418   Grand Totals
     65808       3402       1832         64      60768     599418   ELF Image Totals (compressed)
     65808       3402       1832         64          0          0   ROM Totals

==============================================================================

    Total RO  Size (Code + RO Data)                67640 (  66.05kB)
    Total RW  Size (RW Data + ZI Data)             61088 (  59.66kB)
    Total ROM Size (Code + RO Data + RW Data)      67704 (  66.12kB)

==============================================================================

